{
  "contractName": "AcadChainContract",
  "abi": [
    {
      "anonymous": false,
      "inputs": [
        {
          "indexed": true,
          "internalType": "address",
          "name": "account",
          "type": "address"
        }
      ],
      "name": "TeacherAdded",
      "type": "event"
    },
    {
      "anonymous": false,
      "inputs": [
        {
          "indexed": true,
          "internalType": "address",
          "name": "account",
          "type": "address"
        }
      ],
      "name": "TeacherRemoved",
      "type": "event"
    },
    {
      "anonymous": false,
      "inputs": [
        {
          "indexed": true,
          "internalType": "address",
          "name": "oldOwner",
          "type": "address"
        },
        {
          "indexed": true,
          "internalType": "address",
          "name": "newOwner",
          "type": "address"
        }
      ],
      "name": "TransferOwnership",
      "type": "event"
    },
    {
      "constant": true,
      "inputs": [],
      "name": "isOwner",
      "outputs": [
        {
          "internalType": "bool",
          "name": "",
          "type": "bool"
        }
      ],
      "payable": false,
      "stateMutability": "view",
      "type": "function"
    },
    {
      "constant": true,
      "inputs": [
        {
          "internalType": "address",
          "name": "account",
          "type": "address"
        }
      ],
      "name": "isTeacher",
      "outputs": [
        {
          "internalType": "bool",
          "name": "",
          "type": "bool"
        }
      ],
      "payable": false,
      "stateMutability": "view",
      "type": "function"
    },
    {
      "constant": true,
      "inputs": [],
      "name": "ownerLookup",
      "outputs": [
        {
          "internalType": "address",
          "name": "",
          "type": "address"
        }
      ],
      "payable": false,
      "stateMutability": "view",
      "type": "function"
    },
    {
      "constant": false,
      "inputs": [],
      "name": "renounceOwnership",
      "outputs": [],
      "payable": false,
      "stateMutability": "nonpayable",
      "type": "function"
    },
    {
      "constant": false,
      "inputs": [
        {
          "internalType": "address",
          "name": "account",
          "type": "address"
        }
      ],
      "name": "renounceTeacher",
      "outputs": [],
      "payable": false,
      "stateMutability": "nonpayable",
      "type": "function"
    },
    {
      "constant": true,
      "inputs": [
        {
          "internalType": "uint256",
          "name": "",
          "type": "uint256"
        }
      ],
      "name": "reviews",
      "outputs": [
        {
          "internalType": "string",
          "name": "comments",
          "type": "string"
        }
      ],
      "payable": false,
      "stateMutability": "view",
      "type": "function"
    },
    {
      "constant": false,
      "inputs": [
        {
          "internalType": "address",
          "name": "newOwner",
          "type": "address"
        }
      ],
      "name": "transferOwnership",
      "outputs": [],
      "payable": false,
      "stateMutability": "nonpayable",
      "type": "function"
    },
    {
      "constant": false,
      "inputs": [
        {
          "internalType": "address",
          "name": "account",
          "type": "address"
        }
      ],
      "name": "addTeacher",
      "outputs": [],
      "payable": false,
      "stateMutability": "nonpayable",
      "type": "function"
    },
    {
      "constant": false,
      "inputs": [
        {
          "internalType": "string",
          "name": "_teacherCode",
          "type": "string"
        },
        {
          "internalType": "string[]",
          "name": "_subjectCodes",
          "type": "string[]"
        },
        {
          "internalType": "uint256[]",
          "name": "_studentCount",
          "type": "uint256[]"
        }
      ],
      "name": "addTeacher",
      "outputs": [],
      "payable": false,
      "stateMutability": "nonpayable",
      "type": "function"
    },
    {
      "constant": true,
      "inputs": [
        {
          "internalType": "string",
          "name": "_teacherCode",
          "type": "string"
        }
      ],
      "name": "getTeacher",
      "outputs": [
        {
          "internalType": "string",
          "name": "code",
          "type": "string"
        },
        {
          "internalType": "string[]",
          "name": "subjectCodes",
          "type": "string[]"
        }
      ],
      "payable": false,
      "stateMutability": "view",
      "type": "function"
    },
    {
      "constant": true,
      "inputs": [
        {
          "internalType": "string",
          "name": "_teacherCode",
          "type": "string"
        },
        {
          "internalType": "string",
          "name": "_subjectCode",
          "type": "string"
        }
      ],
      "name": "getPasswords",
      "outputs": [
        {
          "internalType": "uint256[]",
          "name": "passwords",
          "type": "uint256[]"
        }
      ],
      "payable": false,
      "stateMutability": "view",
      "type": "function"
    },
    {
      "constant": true,
      "inputs": [
        {
          "internalType": "string",
          "name": "_teacherCode",
          "type": "string"
        },
        {
          "internalType": "string",
          "name": "_subjectCode",
          "type": "string"
        }
      ],
      "name": "getReview",
      "outputs": [
        {
          "components": [
            {
              "internalType": "string[5]",
              "name": "ratings",
              "type": "string[5]"
            },
            {
              "internalType": "string",
              "name": "comments",
              "type": "string"
            }
          ],
          "internalType": "struct AcadChainContract.Review[]",
          "name": "",
          "type": "tuple[]"
        }
      ],
      "payable": false,
      "stateMutability": "view",
      "type": "function"
    },
    {
      "constant": false,
      "inputs": [
        {
          "internalType": "string",
          "name": "_teacherCode",
          "type": "string"
        },
        {
          "internalType": "string",
          "name": "_subjectCode",
          "type": "string"
        },
        {
          "internalType": "string[5]",
          "name": "_ratings",
          "type": "string[5]"
        },
        {
          "internalType": "string",
          "name": "_comments",
          "type": "string"
        },
        {
          "internalType": "uint256",
          "name": "_password",
          "type": "uint256"
        }
      ],
      "name": "addReview",
      "outputs": [],
      "payable": false,
      "stateMutability": "nonpayable",
      "type": "function"
    }
  ],
  "bytecode": "0x6080604052336000806101000a81548173ffffffffffffffffffffffffffffffffffffffff021916908373ffffffffffffffffffffffffffffffffffffffff1602179055506000809054906101000a900473ffffffffffffffffffffffffffffffffffffffff1673ffffffffffffffffffffffffffffffffffffffff16600073ffffffffffffffffffffffffffffffffffffffff167f5c486528ec3e3f0ea91181cff8116f02bfa350e03b8b6f12e00765adbb5af85c60405160405180910390a3620000d133620000d760201b60201c565b62000281565b620000f28160016200013860201b620010bf1790919060201c565b8073ffffffffffffffffffffffffffffffffffffffff167f04e1c63d2b2fafca3496ea9c3f23b77835b9a91f5d74802ced76b7f929b3265e60405160405180910390a250565b600073ffffffffffffffffffffffffffffffffffffffff168173ffffffffffffffffffffffffffffffffffffffff1614156200017357600080fd5b620001858282620001ee60201b60201c565b156200019057600080fd5b60018260000160008373ffffffffffffffffffffffffffffffffffffffff1673ffffffffffffffffffffffffffffffffffffffff16815260200190815260200160002060006101000a81548160ff0219169083151502179055505050565b60008073ffffffffffffffffffffffffffffffffffffffff168273ffffffffffffffffffffffffffffffffffffffff1614156200022a57600080fd5b8260000160008373ffffffffffffffffffffffffffffffffffffffff1673ffffffffffffffffffffffffffffffffffffffff16815260200190815260200160002060009054906101000a900460ff16905092915050565b6122c580620002916000396000f3fe608060405234801561001057600080fd5b50600436106100cf5760003560e01c806395a6ee3e1161008c578063aec37eb311610066578063aec37eb3146101fd578063e02e64ea1461022d578063e83ddcea1461024b578063f2fde38b1461027b576100cf565b806395a6ee3e146101955780639a3e36e4146101b1578063a0f2de20146101e1576100cf565b8063045f94e3146100d457806321128167146101045780633bc6e30914610135578063715018a614610151578063848b6aaa1461015b5780638f32d59b14610177575b600080fd5b6100ee60048036036100e991908101906117de565b610297565b6040516100fb9190611e42565b60405180910390f35b61011e60048036036101199190810190611706565b6104d9565b60405161012c929190611ec3565b60405180910390f35b61014f600480360361014a91908101906116dd565b6106bb565b005b6101596106d9565b005b6101756004803603610170919081019061184a565b6107a9565b005b61017f610a4e565b60405161018c9190611e86565b60405180910390f35b6101af60048036036101aa9190810190611747565b610aa5565b005b6101cb60048036036101c691908101906117de565b610c8d565b6040516101d89190611e64565b60405180910390f35b6101fb60048036036101f691908101906116dd565b610d4f565b005b610217600480360361021291908101906116dd565b610d5b565b6040516102249190611e86565b60405180910390f35b610235610d78565b6040516102429190611e27565b60405180910390f35b61026560048036036102609190810190611921565b610da1565b6040516102729190611ea1565b60405180910390f35b610295600480360361029091908101906116dd565b610e64565b005b6060600115156102a5610a4e565b151514806102bf5750600115156102bb33610d5b565b1515145b156104d3576003836040516102d49190611e10565b9081526020016040518091039020600301826040516102f39190611e10565b9081526020016040518091039020805480602002602001604051908101604052809291908181526020016000905b828210156104cc578382906000526020600020906006020160405180604001604052908160008201600580602002604051908101604052809291906000905b82821015610413578382018054600181600116156101000203166002900480601f0160208091040260200160405190810160405280929190818152602001828054600181600116156101000203166002900480156103ff5780601f106103d4576101008083540402835291602001916103ff565b820191906000526020600020905b8154815290600101906020018083116103e257829003601f168201915b505050505081526020019060010190610360565b505050508152602001600582018054600181600116156101000203166002900480601f0160208091040260200160405190810160405280929190818152602001828054600181600116156101000203166002900480156104b45780601f10610489576101008083540402835291602001916104b4565b820191906000526020600020905b81548152906001019060200180831161049757829003601f168201915b50505050508152505081526020019060010190610321565b5050505090505b92915050565b606080600115156104e8610a4e565b151514806105025750600115156104fe33610d5b565b1515145b156106b65760006003846040516105199190611e10565b908152602001604051809103902090508060000181600101818054600181600116156101000203166002900480601f0160208091040260200160405190810160405280929190818152602001828054600181600116156101000203166002900480156105c65780601f1061059b576101008083540402835291602001916105c6565b820191906000526020600020905b8154815290600101906020018083116105a957829003601f168201915b5050505050915080805480602002602001604051908101604052809291908181526020016000905b828210156106aa578382906000526020600020018054600181600116156101000203166002900480601f0160208091040260200160405190810160405280929190818152602001828054600181600116156101000203166002900480156106965780601f1061066b57610100808354040283529160200191610696565b820191906000526020600020905b81548152906001019060200180831161067957829003601f168201915b5050505050815260200190600101906105ee565b50505050905092509250505b915091565b6106c433610d5b565b6106cd57600080fd5b6106d681610e81565b50565b6106e1610a4e565b6106ea57600080fd5b600073ffffffffffffffffffffffffffffffffffffffff166000809054906101000a900473ffffffffffffffffffffffffffffffffffffffff1673ffffffffffffffffffffffffffffffffffffffff167f5c486528ec3e3f0ea91181cff8116f02bfa350e03b8b6f12e00765adbb5af85c60405160405180910390a360008060006101000a81548173ffffffffffffffffffffffffffffffffffffffff021916908373ffffffffffffffffffffffffffffffffffffffff160217905550565b60606003866040516107bb9190611e10565b9081526020016040518091039020600201856040516107da9190611e10565b908152602001604051809103902080548060200260200160405190810160405280929190818152602001828054801561083257602002820191906000526020600020905b81548152602001906001019080831161081e575b50505050509050600081511161087d576040517f08c379a000000000000000000000000000000000000000000000000000000000815260040161087490611f1a565b60405180910390fd5b6004600083815260200190815260200160002060009054906101000a900460ff16156108de576040517f08c379a00000000000000000000000000000000000000000000000000000000081526004016108d590611efa565b60405180910390fd5b600080905060008090505b825181101561092357838382815181106108ff57fe5b602002602001015114156109165760019150610923565b80806001019150506108e9565b5080610964576040517f08c379a000000000000000000000000000000000000000000000000000000000815260040161095b90611f3a565b60405180910390fd5b60016004600085815260200190815260200160002060006101000a81548160ff0219169083151502179055506003876040516109a09190611e10565b9081526020016040518091039020600301866040516109bf9190611e10565b908152602001604051809103902060405180604001604052808781526020018681525090806001815401808255809150509060018203906000526020600020906006020160009091929091909150600082015181600001906005610a24929190611216565b506020820151816005019080519060200190610a41929190611269565b5050505050505050505050565b60008060009054906101000a900473ffffffffffffffffffffffffffffffffffffffff1673ffffffffffffffffffffffffffffffffffffffff163373ffffffffffffffffffffffffffffffffffffffff1614905090565b610aad610a4e565b610ab657600080fd5b82600384604051610ac79190611e10565b90815260200160405180910390206000019080519060200190610aeb9291906112e9565b5081600384604051610afd9190611e10565b90815260200160405180910390206001019080519060200190610b21929190611369565b5060008090505b8251811015610c87576060828281518110610b3f57fe5b6020026020010151604051908082528060200260200182016040528015610b755781602001602082028038833980820191505090505b50905060008090505b838381518110610b8a57fe5b6020026020010151811015610c13576000620186a03388888781518110610bad57fe5b602002602001015185604051602001610bc99493929190611db3565b6040516020818303038152906040528051906020012060001c81610be957fe5b06905080838381518110610bf957fe5b602002602001018181525050508080600101915050610b7e565b5080600386604051610c259190611e10565b9081526020016040518091039020600201858481518110610c4257fe5b6020026020010151604051610c579190611df9565b90815260200160405180910390209080519060200190610c789291906113c9565b50508080600101915050610b28565b50505050565b606060011515610c9b610a4e565b15151480610cb5575060011515610cb133610d5b565b1515145b15610d4957600383604051610cca9190611e10565b908152602001604051809103902060020182604051610ce99190611e10565b9081526020016040518091039020805480602002602001604051908101604052809291908181526020018280548015610d4157602002820191906000526020600020905b815481526020019060010190808311610d2d575b505050505090505b92915050565b610d5881610edb565b50565b6000610d71826001610f3590919063ffffffff16565b9050919050565b60008060009054906101000a900473ffffffffffffffffffffffffffffffffffffffff16905090565b60028181548110610dae57fe5b9060005260206000209060060201600091509050806005018054600181600116156101000203166002900480601f016020809104026020016040519081016040528092919081815260200182805460018160011615610100020316600290048015610e5a5780601f10610e2f57610100808354040283529160200191610e5a565b820191906000526020600020905b815481529060010190602001808311610e3d57829003601f168201915b5050505050905081565b610e6c610a4e565b610e7557600080fd5b610e7e81610fc7565b50565b610e958160016110bf90919063ffffffff16565b8073ffffffffffffffffffffffffffffffffffffffff167f04e1c63d2b2fafca3496ea9c3f23b77835b9a91f5d74802ced76b7f929b3265e60405160405180910390a250565b610eef81600161116b90919063ffffffff16565b8073ffffffffffffffffffffffffffffffffffffffff167f024a5dd50126818a1d488f90df37ad02592196a4ea744aff479981813929773460405160405180910390a250565b60008073ffffffffffffffffffffffffffffffffffffffff168273ffffffffffffffffffffffffffffffffffffffff161415610f7057600080fd5b8260000160008373ffffffffffffffffffffffffffffffffffffffff1673ffffffffffffffffffffffffffffffffffffffff16815260200190815260200160002060009054906101000a900460ff16905092915050565b600073ffffffffffffffffffffffffffffffffffffffff168173ffffffffffffffffffffffffffffffffffffffff16141561100157600080fd5b8073ffffffffffffffffffffffffffffffffffffffff166000809054906101000a900473ffffffffffffffffffffffffffffffffffffffff1673ffffffffffffffffffffffffffffffffffffffff167f5c486528ec3e3f0ea91181cff8116f02bfa350e03b8b6f12e00765adbb5af85c60405160405180910390a3806000806101000a81548173ffffffffffffffffffffffffffffffffffffffff021916908373ffffffffffffffffffffffffffffffffffffffff16021790555050565b600073ffffffffffffffffffffffffffffffffffffffff168173ffffffffffffffffffffffffffffffffffffffff1614156110f957600080fd5b6111038282610f35565b1561110d57600080fd5b60018260000160008373ffffffffffffffffffffffffffffffffffffffff1673ffffffffffffffffffffffffffffffffffffffff16815260200190815260200160002060006101000a81548160ff0219169083151502179055505050565b600073ffffffffffffffffffffffffffffffffffffffff168173ffffffffffffffffffffffffffffffffffffffff1614156111a557600080fd5b6111af8282610f35565b6111b857600080fd5b60008260000160008373ffffffffffffffffffffffffffffffffffffffff1673ffffffffffffffffffffffffffffffffffffffff16815260200190815260200160002060006101000a81548160ff0219169083151502179055505050565b8260058101928215611258579160200282015b82811115611257578251829080519060200190611247929190611269565b5091602001919060010190611229565b5b5090506112659190611416565b5090565b828054600181600116156101000203166002900490600052602060002090601f016020900481019282601f106112aa57805160ff19168380011785556112d8565b828001600101855582156112d8579182015b828111156112d75782518255916020019190600101906112bc565b5b5090506112e59190611442565b5090565b828054600181600116156101000203166002900490600052602060002090601f016020900481019282601f1061132a57805160ff1916838001178555611358565b82800160010185558215611358579182015b8281111561135757825182559160200191906001019061133c565b5b5090506113659190611442565b5090565b8280548282559060005260206000209081019282156113b8579160200282015b828111156113b75782518290805190602001906113a7929190611269565b5091602001919060010190611389565b5b5090506113c59190611416565b5090565b828054828255906000526020600020908101928215611405579160200282015b828111156114045782518255916020019190600101906113e9565b5b5090506114129190611442565b5090565b61143f91905b8082111561143b57600081816114329190611467565b5060010161141c565b5090565b90565b61146491905b80821115611460576000816000905550600101611448565b5090565b90565b50805460018160011615610100020316600290046000825580601f1061148d57506114ac565b601f0160209004906000526020600020908101906114ab9190611442565b5b50565b6000813590506114be81612254565b92915050565b600082601f8301126114d557600080fd5b60056114e86114e382611f87565b611f5a565b9150818360005b8381101561151f57813586016115058882611620565b8452602084019350602083019250506001810190506114ef565b5050505092915050565b600082601f83011261153a57600080fd5b813561154d61154882611fa9565b611f5a565b9150818183526020840193506020810190508360005b8381101561159357813586016115798882611620565b845260208401935060208301925050600181019050611563565b5050505092915050565b600082601f8301126115ae57600080fd5b81356115c16115bc82611fd1565b611f5a565b915081818352602084019350602081019050838560208402820111156115e657600080fd5b60005b8381101561161657816115fc88826116c8565b8452602084019350602083019250506001810190506115e9565b5050505092915050565b600082601f83011261163157600080fd5b813561164461163f82611ff9565b611f5a565b9150808252602083016020830185838301111561166057600080fd5b61166b8382846121c6565b50505092915050565b600082601f83011261168557600080fd5b813561169861169382612025565b611f5a565b915080825260208301602083018583830111156116b457600080fd5b6116bf8382846121c6565b50505092915050565b6000813590506116d78161226b565b92915050565b6000602082840312156116ef57600080fd5b60006116fd848285016114af565b91505092915050565b60006020828403121561171857600080fd5b600082013567ffffffffffffffff81111561173257600080fd5b61173e84828501611674565b91505092915050565b60008060006060848603121561175c57600080fd5b600084013567ffffffffffffffff81111561177657600080fd5b61178286828701611674565b935050602084013567ffffffffffffffff81111561179f57600080fd5b6117ab86828701611529565b925050604084013567ffffffffffffffff8111156117c857600080fd5b6117d48682870161159d565b9150509250925092565b600080604083850312156117f157600080fd5b600083013567ffffffffffffffff81111561180b57600080fd5b61181785828601611674565b925050602083013567ffffffffffffffff81111561183457600080fd5b61184085828601611674565b9150509250929050565b600080600080600060a0868803121561186257600080fd5b600086013567ffffffffffffffff81111561187c57600080fd5b61188888828901611674565b955050602086013567ffffffffffffffff8111156118a557600080fd5b6118b188828901611674565b945050604086013567ffffffffffffffff8111156118ce57600080fd5b6118da888289016114c4565b935050606086013567ffffffffffffffff8111156118f757600080fd5b61190388828901611674565b9250506080611914888289016116c8565b9150509295509295909350565b60006020828403121561193357600080fd5b6000611941848285016116c8565b91505092915050565b60006119568383611be6565b905092915050565b600061196a8383611d49565b905092915050565b600061197e8383611d8d565b60208301905092915050565b61199b6119968261217e565b612208565b82525050565b6119aa8161216c565b82525050565b60006119bb8261208b565b6119c58185612101565b9350836020820285016119d785612051565b8060005b85811015611a1357848403895281516119f4858261194a565b94506119ff836120cd565b925060208a019950506001810190506119db565b50829750879550505050505092915050565b6000611a3082612096565b611a3a818561210c565b935083602082028501611a4c8561205b565b8060005b85811015611a885784840389528151611a69858261194a565b9450611a74836120da565b925060208a01995050600181019050611a50565b50829750879550505050505092915050565b6000611aa5826120a1565b611aaf818561211d565b935083602082028501611ac18561206b565b8060005b85811015611afd5784840389528151611ade858261195e565b9450611ae9836120e7565b925060208a01995050600181019050611ac5565b50829750879550505050505092915050565b6000611b1a826120ac565b611b24818561212e565b9350611b2f8361207b565b8060005b83811015611b60578151611b478882611972565b9750611b52836120f4565b925050600181019050611b33565b5085935050505092915050565b611b7681612190565b82525050565b6000611b87826120c2565b611b918185612150565b9350611ba18185602086016121d5565b611baa81612236565b840191505092915050565b6000611bc0826120c2565b611bca8185612161565b9350611bda8185602086016121d5565b80840191505092915050565b6000611bf1826120b7565b611bfb818561213f565b9350611c0b8185602086016121d5565b611c1481612236565b840191505092915050565b6000611c2a826120b7565b611c348185612150565b9350611c448185602086016121d5565b611c4d81612236565b840191505092915050565b6000611c63826120b7565b611c6d8185612161565b9350611c7d8185602086016121d5565b80840191505092915050565b6000611c96601e83612150565b91507f50617373776f72642068617320616c7265616479206265656e207573656400006000830152602082019050919050565b6000611cd6601f83612150565b91507f496e76616c69642074656163686572206f72207375626a65637420636f6465006000830152602082019050919050565b6000611d16601083612150565b91507f496e76616c69642070617373776f7264000000000000000000000000000000006000830152602082019050919050565b60006040830160008301518482036000860152611d6682826119b0565b91505060208301518482036020860152611d808282611be6565b9150508091505092915050565b611d96816121bc565b82525050565b611dad611da8826121bc565b61222c565b82525050565b6000611dbf828761198a565b601482019150611dcf8286611bb5565b9150611ddb8285611c58565b9150611de78284611d9c565b60208201915081905095945050505050565b6000611e058284611c58565b915081905092915050565b6000611e1c8284611bb5565b915081905092915050565b6000602082019050611e3c60008301846119a1565b92915050565b60006020820190508181036000830152611e5c8184611a9a565b905092915050565b60006020820190508181036000830152611e7e8184611b0f565b905092915050565b6000602082019050611e9b6000830184611b6d565b92915050565b60006020820190508181036000830152611ebb8184611c1f565b905092915050565b60006040820190508181036000830152611edd8185611b7c565b90508181036020830152611ef18184611a25565b90509392505050565b60006020820190508181036000830152611f1381611c89565b9050919050565b60006020820190508181036000830152611f3381611cc9565b9050919050565b60006020820190508181036000830152611f5381611d09565b9050919050565b6000604051905081810181811067ffffffffffffffff82111715611f7d57600080fd5b8060405250919050565b600067ffffffffffffffff821115611f9e57600080fd5b602082029050919050565b600067ffffffffffffffff821115611fc057600080fd5b602082029050602081019050919050565b600067ffffffffffffffff821115611fe857600080fd5b602082029050602081019050919050565b600067ffffffffffffffff82111561201057600080fd5b601f19601f8301169050602081019050919050565b600067ffffffffffffffff82111561203c57600080fd5b601f19601f8301169050602081019050919050565b6000819050919050565b6000819050602082019050919050565b6000819050602082019050919050565b6000819050602082019050919050565b600060059050919050565b600081519050919050565b600081519050919050565b600081519050919050565b600081519050919050565b600081519050919050565b6000602082019050919050565b6000602082019050919050565b6000602082019050919050565b6000602082019050919050565b600081905092915050565b600082825260208201905092915050565b600082825260208201905092915050565b600082825260208201905092915050565b600082825260208201905092915050565b600082825260208201905092915050565b600081905092915050565b60006121778261219c565b9050919050565b60006121898261219c565b9050919050565b60008115159050919050565b600073ffffffffffffffffffffffffffffffffffffffff82169050919050565b6000819050919050565b82818337600083830152505050565b60005b838110156121f35780820151818401526020810190506121d8565b83811115612202576000848401525b50505050565b60006122138261221a565b9050919050565b600061222582612247565b9050919050565b6000819050919050565b6000601f19601f8301169050919050565b60008160601b9050919050565b61225d8161216c565b811461226857600080fd5b50565b612274816121bc565b811461227f57600080fd5b5056fea365627a7a7231582028d33ca99391729176a7f9495910340f56c7a08c7ab525f406e801ebf236f87f6c6578706572696d656e74616cf564736f6c63430005100040",
  "source": "// SPDX-License-Identifier: GPL-3.0\r\npragma solidity >=0.4.24;\r\npragma experimental ABIEncoderV2;\r\n// inherited contracts\r\nimport \"./Ownable.sol\";\r\nimport \"./TeacherRole.sol\";\r\n\r\ncontract AcadChainContract is Ownable, TeacherRole {\r\n    struct TeacherData {\r\n        string code;\r\n        string[] subjectCodes;\r\n        mapping(string => uint[]) passwordMap;\r\n        mapping(string => Review[]) reviewMap;\r\n    }\r\n\r\n    struct Review {\r\n        string[5] ratings;\r\n        string comments;\r\n    }\r\n\r\n    Review[] public reviews;\r\n\r\n    mapping(string => TeacherData) teachers;\r\n    mapping(uint => bool) usedPasswords;\r\n\r\n    modifier checkEitherOwnerOrTeacher() {\r\n        if ((isOwner() == true) || (isTeacher(msg.sender) == true)) {\r\n            _;\r\n        }\r\n    }\r\n\r\n    function addTeacher(\r\n        string memory _teacherCode,\r\n        string[] memory _subjectCodes,\r\n        uint[] memory _studentCount\r\n    ) public onlyOwner {\r\n\r\n        teachers[_teacherCode].code = _teacherCode;\r\n        teachers[_teacherCode].subjectCodes = _subjectCodes;\r\n\r\n        for (uint i = 0; i < _subjectCodes.length; i++) {\r\n            uint[] memory passwords = new uint[](_studentCount[i]);\r\n            for (uint j = 0; j < _studentCount[i]; j++) {\r\n                uint password = uint(\r\n                    keccak256(\r\n                        abi.encodePacked(\r\n                            msg.sender,\r\n                            _teacherCode,\r\n                            _subjectCodes[i],\r\n                            j\r\n                        )\r\n                    )\r\n                ) % 100000;\r\n                passwords[j] = password;\r\n            }\r\n            teachers[_teacherCode].passwordMap[_subjectCodes[i]] = passwords;\r\n        }\r\n    }\r\n\r\n    function getTeacher(\r\n        string memory _teacherCode\r\n    ) public view checkEitherOwnerOrTeacher returns (string memory code, string[] memory subjectCodes)\r\n    {\r\n        TeacherData storage teacher = teachers[_teacherCode];\r\n        return (teacher.code, teacher.subjectCodes);\r\n    }\r\n\r\n    function getPasswords(\r\n        string memory _teacherCode,\r\n        string memory _subjectCode\r\n    ) public view checkEitherOwnerOrTeacher returns (uint[] memory passwords) {\r\n        return teachers[_teacherCode].passwordMap[_subjectCode];\r\n    }\r\n\r\n    function getReview(\r\n        string memory _teacherCode,\r\n        string memory _subjectCode\r\n    ) public view checkEitherOwnerOrTeacher returns (Review[] memory) {\r\n        return (teachers[_teacherCode].reviewMap[_subjectCode]);\r\n    }\r\n\r\n    function addReview(\r\n        string memory _teacherCode,\r\n        string memory _subjectCode,\r\n        string[5] memory _ratings,\r\n        string memory _comments,\r\n        uint _password\r\n    ) public {\r\n        uint[] memory passwords = teachers[_teacherCode].passwordMap[\r\n            _subjectCode\r\n        ];\r\n        require(passwords.length > 0, \"Invalid teacher or subject code\");\r\n        require(!usedPasswords[_password], \"Password has already been used\");\r\n        bool passwordMatch = false;\r\n        for (uint i = 0; i < passwords.length; i++) {\r\n            if (passwords[i] == _password) {\r\n                passwordMatch = true;\r\n                break;\r\n            }\r\n        }\r\n        require(passwordMatch, \"Invalid password\");\r\n        usedPasswords[_password] = true;\r\n        teachers[_teacherCode].reviewMap[_subjectCode].push(\r\n            Review(_ratings, _comments)\r\n        );\r\n    }\r\n}\r\n",
  "sourcePath": "C:\\Users\\pragy\\Desktop\\Workspaces\\Projects\\STABLE - AcadChainDapp v1.1 - Copy\\AcadChainDapp\\AcadChain\\contracts\\AcadChainContract.sol",
  "compiler": {
    "name": "solc",
    "version": "0.5.16+commit.9c3226ce.Emscripten.clang"
  },
  "schemaVersion": "3.4.14",
  "updatedAt": "2023-10-16T02:15:07.261Z",
  "networkType": "ethereum",
  "devdoc": {
    "methods": {}
  },
  "userdoc": {
    "methods": {
      "isOwner()": {
        "notice": "Check if the calling address is the owner of the contract"
      },
      "ownerLookup()": {
        "notice": "Look up the address of the owner"
      },
      "renounceOwnership()": {
        "notice": "Define a function to renounce ownerhip"
      },
      "transferOwnership(address)": {
        "notice": "Define a public function to transfer ownership"
      }
    }
  }
}