{
  "contractName": "AcadChainContract",
  "abi": [
    {
      "anonymous": false,
      "inputs": [
        {
          "indexed": true,
          "internalType": "address",
          "name": "account",
          "type": "address"
        }
      ],
      "name": "TeacherAdded",
      "type": "event"
    },
    {
      "anonymous": false,
      "inputs": [
        {
          "indexed": true,
          "internalType": "address",
          "name": "teacherAddress",
          "type": "address"
        },
        {
          "indexed": false,
          "internalType": "string",
          "name": "teacherCode",
          "type": "string"
        },
        {
          "indexed": false,
          "internalType": "string",
          "name": "subjectCodes",
          "type": "string"
        },
        {
          "indexed": false,
          "internalType": "string",
          "name": "studentCounts",
          "type": "string"
        }
      ],
      "name": "TeacherRegistrationDataStored",
      "type": "event"
    },
    {
      "anonymous": false,
      "inputs": [
        {
          "indexed": true,
          "internalType": "address",
          "name": "account",
          "type": "address"
        }
      ],
      "name": "TeacherRemoved",
      "type": "event"
    },
    {
      "anonymous": false,
      "inputs": [
        {
          "indexed": true,
          "internalType": "address",
          "name": "oldOwner",
          "type": "address"
        },
        {
          "indexed": true,
          "internalType": "address",
          "name": "newOwner",
          "type": "address"
        }
      ],
      "name": "TransferOwnership",
      "type": "event"
    },
    {
      "inputs": [
        {
          "internalType": "address",
          "name": "account",
          "type": "address"
        }
      ],
      "name": "addTeacher",
      "outputs": [],
      "stateMutability": "nonpayable",
      "type": "function"
    },
    {
      "inputs": [],
      "name": "isOwner",
      "outputs": [
        {
          "internalType": "bool",
          "name": "",
          "type": "bool"
        }
      ],
      "stateMutability": "view",
      "type": "function",
      "constant": true
    },
    {
      "inputs": [
        {
          "internalType": "address",
          "name": "account",
          "type": "address"
        }
      ],
      "name": "isTeacher",
      "outputs": [
        {
          "internalType": "bool",
          "name": "",
          "type": "bool"
        }
      ],
      "stateMutability": "view",
      "type": "function",
      "constant": true
    },
    {
      "inputs": [],
      "name": "ownerLookup",
      "outputs": [
        {
          "internalType": "address",
          "name": "",
          "type": "address"
        }
      ],
      "stateMutability": "view",
      "type": "function",
      "constant": true
    },
    {
      "inputs": [],
      "name": "renounceOwnership",
      "outputs": [],
      "stateMutability": "nonpayable",
      "type": "function"
    },
    {
      "inputs": [
        {
          "internalType": "address",
          "name": "account",
          "type": "address"
        }
      ],
      "name": "renounceTeacher",
      "outputs": [],
      "stateMutability": "nonpayable",
      "type": "function"
    },
    {
      "inputs": [
        {
          "internalType": "uint256",
          "name": "",
          "type": "uint256"
        }
      ],
      "name": "reviews",
      "outputs": [
        {
          "internalType": "string",
          "name": "comments",
          "type": "string"
        }
      ],
      "stateMutability": "view",
      "type": "function",
      "constant": true
    },
    {
      "inputs": [
        {
          "internalType": "address",
          "name": "",
          "type": "address"
        }
      ],
      "name": "teacherRegistrationData",
      "outputs": [
        {
          "internalType": "address",
          "name": "userAddress",
          "type": "address"
        },
        {
          "internalType": "string",
          "name": "teacherCode",
          "type": "string"
        },
        {
          "internalType": "string",
          "name": "subjectCodes",
          "type": "string"
        },
        {
          "internalType": "string",
          "name": "studentCounts",
          "type": "string"
        }
      ],
      "stateMutability": "view",
      "type": "function",
      "constant": true
    },
    {
      "inputs": [
        {
          "internalType": "uint256",
          "name": "",
          "type": "uint256"
        }
      ],
      "name": "teacherRegistrationKeys",
      "outputs": [
        {
          "internalType": "address",
          "name": "",
          "type": "address"
        }
      ],
      "stateMutability": "view",
      "type": "function",
      "constant": true
    },
    {
      "inputs": [
        {
          "internalType": "address",
          "name": "newOwner",
          "type": "address"
        }
      ],
      "name": "transferOwnership",
      "outputs": [],
      "stateMutability": "nonpayable",
      "type": "function"
    },
    {
      "inputs": [
        {
          "internalType": "string",
          "name": "_teacherCode",
          "type": "string"
        },
        {
          "internalType": "string",
          "name": "_subjectCodes",
          "type": "string"
        },
        {
          "internalType": "string",
          "name": "_studentCounts",
          "type": "string"
        }
      ],
      "name": "storeTeacherRegistrationData",
      "outputs": [],
      "stateMutability": "nonpayable",
      "type": "function"
    },
    {
      "inputs": [],
      "name": "getTeacherRegistrationData",
      "outputs": [
        {
          "components": [
            {
              "internalType": "address",
              "name": "userAddress",
              "type": "address"
            },
            {
              "internalType": "string",
              "name": "teacherCode",
              "type": "string"
            },
            {
              "internalType": "string",
              "name": "subjectCodes",
              "type": "string"
            },
            {
              "internalType": "string",
              "name": "studentCounts",
              "type": "string"
            }
          ],
          "internalType": "struct AcadChainContract.TeacherRegistrationData[]",
          "name": "",
          "type": "tuple[]"
        }
      ],
      "stateMutability": "view",
      "type": "function",
      "constant": true
    },
    {
      "inputs": [
        {
          "internalType": "address",
          "name": "_userAddress",
          "type": "address"
        }
      ],
      "name": "deleteTeacherRegistrationData",
      "outputs": [],
      "stateMutability": "nonpayable",
      "type": "function"
    },
    {
      "inputs": [
        {
          "internalType": "string",
          "name": "_teacherCode",
          "type": "string"
        },
        {
          "internalType": "string[]",
          "name": "_subjectCodes",
          "type": "string[]"
        },
        {
          "internalType": "uint256[]",
          "name": "_studentCount",
          "type": "uint256[]"
        }
      ],
      "name": "addNewTeacher",
      "outputs": [],
      "stateMutability": "nonpayable",
      "type": "function"
    },
    {
      "inputs": [
        {
          "internalType": "string",
          "name": "_teacherCode",
          "type": "string"
        }
      ],
      "name": "getTeacher",
      "outputs": [
        {
          "internalType": "string",
          "name": "code",
          "type": "string"
        },
        {
          "internalType": "string[]",
          "name": "subjectCodes",
          "type": "string[]"
        }
      ],
      "stateMutability": "view",
      "type": "function",
      "constant": true
    },
    {
      "inputs": [
        {
          "internalType": "string",
          "name": "_teacherCode",
          "type": "string"
        },
        {
          "internalType": "string",
          "name": "_subjectCode",
          "type": "string"
        }
      ],
      "name": "getPasswords",
      "outputs": [
        {
          "internalType": "uint256[]",
          "name": "passwords",
          "type": "uint256[]"
        }
      ],
      "stateMutability": "view",
      "type": "function",
      "constant": true
    },
    {
      "inputs": [
        {
          "internalType": "string",
          "name": "_teacherCode",
          "type": "string"
        },
        {
          "internalType": "string",
          "name": "_subjectCode",
          "type": "string"
        }
      ],
      "name": "getReview",
      "outputs": [
        {
          "components": [
            {
              "internalType": "string[5]",
              "name": "ratings",
              "type": "string[5]"
            },
            {
              "internalType": "string",
              "name": "comments",
              "type": "string"
            }
          ],
          "internalType": "struct AcadChainContract.Review[]",
          "name": "review",
          "type": "tuple[]"
        }
      ],
      "stateMutability": "view",
      "type": "function",
      "constant": true
    },
    {
      "inputs": [
        {
          "internalType": "string",
          "name": "_teacherCode",
          "type": "string"
        },
        {
          "internalType": "string",
          "name": "_subjectCode",
          "type": "string"
        },
        {
          "internalType": "string[5]",
          "name": "_ratings",
          "type": "string[5]"
        },
        {
          "internalType": "string",
          "name": "_comments",
          "type": "string"
        },
        {
          "internalType": "uint256",
          "name": "_password",
          "type": "uint256"
        }
      ],
      "name": "addReview",
      "outputs": [],
      "stateMutability": "nonpayable",
      "type": "function"
    }
  ],
  "bytecode": "0x60806040523480156200001157600080fd5b50336000806101000a81548173ffffffffffffffffffffffffffffffffffffffff021916908373ffffffffffffffffffffffffffffffffffffffff16021790555060008054906101000a900473ffffffffffffffffffffffffffffffffffffffff1673ffffffffffffffffffffffffffffffffffffffff16600073ffffffffffffffffffffffffffffffffffffffff167f5c486528ec3e3f0ea91181cff8116f02bfa350e03b8b6f12e00765adbb5af85c60405160405180910390a3620000de33620000e460201b60201c565b6200028e565b620000ff8160016200014560201b620019d61790919060201c565b8073ffffffffffffffffffffffffffffffffffffffff167f04e1c63d2b2fafca3496ea9c3f23b77835b9a91f5d74802ced76b7f929b3265e60405160405180910390a250565b600073ffffffffffffffffffffffffffffffffffffffff168173ffffffffffffffffffffffffffffffffffffffff1614156200018057600080fd5b620001928282620001fb60201b60201c565b156200019d57600080fd5b60018260000160008373ffffffffffffffffffffffffffffffffffffffff1673ffffffffffffffffffffffffffffffffffffffff16815260200190815260200160002060006101000a81548160ff0219169083151502179055505050565b60008073ffffffffffffffffffffffffffffffffffffffff168273ffffffffffffffffffffffffffffffffffffffff1614156200023757600080fd5b8260000160008373ffffffffffffffffffffffffffffffffffffffff1673ffffffffffffffffffffffffffffffffffffffff16815260200190815260200160002060009054906101000a900460ff16905092915050565b61344b806200029e6000396000f3fe608060405234801561001057600080fd5b50600436106101165760003560e01c8063848b6aaa116100a2578063aec37eb311610071578063aec37eb3146102cd578063bb631df7146102fd578063e02e64ea1461032d578063e83ddcea1461034b578063f2fde38b1461037b57610116565b8063848b6aaa146102475780638f32d59b146102635780639a3e36e414610281578063a0f2de20146102b157610116565b80633ef36da8116100e95780633ef36da8146101cb5780634b454d10146101e9578063715018a614610205578063774f89d61461020f5780637d64e9721461022b57610116565b8063045f94e31461011b5780631410c8c81461014b578063211281671461017e5780633bc6e309146101af575b600080fd5b61013560048036038101906101309190612109565b610397565b60405161014291906123c5565b60405180910390f35b61016560048036038101906101609190612445565b6105b9565b60405161017594939291906124cb565b60405180910390f35b61019860048036038101906101939190612525565b6107a1565b6040516101a692919061261c565b60405180910390f35b6101c960048036038101906101c49190612445565b610963565b005b6101d3610981565b6040516101e09190612795565b60405180910390f35b61020360048036038101906101fe9190612445565b610caa565b005b61020d610f13565b005b610229600480360381019061022491906127b7565b610fe2565b005b61024560048036038101906102409190612a3d565b611285565b005b610261600480360381019061025c9190612bb3565b6114b1565b005b61026b611759565b6040516102789190612cb9565b60405180910390f35b61029b60048036038101906102969190612109565b6117b0565b6040516102a89190612d92565b60405180910390f35b6102cb60048036038101906102c69190612445565b611872565b005b6102e760048036038101906102e29190612445565b61187e565b6040516102f49190612cb9565b60405180910390f35b61031760048036038101906103129190612db4565b61189b565b6040516103249190612de1565b60405180910390f35b6103356118da565b6040516103429190612de1565b60405180910390f35b61036560048036038101906103609190612db4565b611903565b6040516103729190612dfc565b60405180910390f35b61039560048036038101906103909190612445565b6119b9565b005b6060600115156103a5611759565b151514806103bf5750600115156103bb3361187e565b1515145b156105b3576003836040516103d49190612e5a565b9081526020016040518091039020600301826040516103f39190612e5a565b9081526020016040518091039020805480602002602001604051908101604052809291908181526020016000905b828210156105ac578382906000526020600020906006020160405180604001604052908160008201600580602002604051908101604052809291906000905b8282101561050357838201805461047690612ea0565b80601f01602080910402602001604051908101604052809291908181526020018280546104a290612ea0565b80156104ef5780601f106104c4576101008083540402835291602001916104ef565b820191906000526020600020905b8154815290600101906020018083116104d257829003601f168201915b505050505081526020019060010190610460565b50505050815260200160058201805461051b90612ea0565b80601f016020809104026020016040519081016040528092919081815260200182805461054790612ea0565b80156105945780601f1061056957610100808354040283529160200191610594565b820191906000526020600020905b81548152906001019060200180831161057757829003601f168201915b50505050508152505081526020019060010190610421565b5050505090505b92915050565b60026020528060005260406000206000915090508060000160009054906101000a900473ffffffffffffffffffffffffffffffffffffffff169080600101805461060290612ea0565b80601f016020809104026020016040519081016040528092919081815260200182805461062e90612ea0565b801561067b5780601f106106505761010080835404028352916020019161067b565b820191906000526020600020905b81548152906001019060200180831161065e57829003601f168201915b50505050509080600201805461069090612ea0565b80601f01602080910402602001604051908101604052809291908181526020018280546106bc90612ea0565b80156107095780601f106106de57610100808354040283529160200191610709565b820191906000526020600020905b8154815290600101906020018083116106ec57829003601f168201915b50505050509080600301805461071e90612ea0565b80601f016020809104026020016040519081016040528092919081815260200182805461074a90612ea0565b80156107975780601f1061076c57610100808354040283529160200191610797565b820191906000526020600020905b81548152906001019060200180831161077a57829003601f168201915b5050505050905084565b606080600115156107b0611759565b151514806107ca5750600115156107c63361187e565b1515145b1561095e5760006003846040516107e19190612e5a565b90815260200160405180910390209050806000018160010181805461080590612ea0565b80601f016020809104026020016040519081016040528092919081815260200182805461083190612ea0565b801561087e5780601f106108535761010080835404028352916020019161087e565b820191906000526020600020905b81548152906001019060200180831161086157829003601f168201915b5050505050915080805480602002602001604051908101604052809291908181526020016000905b828210156109525783829060005260206000200180546108c590612ea0565b80601f01602080910402602001604051908101604052809291908181526020018280546108f190612ea0565b801561093e5780601f106109135761010080835404028352916020019161093e565b820191906000526020600020905b81548152906001019060200180831161092157829003601f168201915b5050505050815260200190600101906108a6565b50505050905092509250505b915091565b61096c3361187e565b61097557600080fd5b61097e81611a82565b50565b6060600060068054905067ffffffffffffffff8111156109a4576109a3611fde565b5b6040519080825280602002602001820160405280156109dd57816020015b6109ca611d6a565b8152602001906001900390816109c25790505b50905060005b600680549050811015610ca25760006002600060068481548110610a0a57610a09612ed2565b5b9060005260206000200160009054906101000a900473ffffffffffffffffffffffffffffffffffffffff1673ffffffffffffffffffffffffffffffffffffffff1673ffffffffffffffffffffffffffffffffffffffff168152602001908152602001600020905060405180608001604052808260000160009054906101000a900473ffffffffffffffffffffffffffffffffffffffff1673ffffffffffffffffffffffffffffffffffffffff168152602001826001018054610acb90612ea0565b80601f0160208091040260200160405190810160405280929190818152602001828054610af790612ea0565b8015610b445780601f10610b1957610100808354040283529160200191610b44565b820191906000526020600020905b815481529060010190602001808311610b2757829003601f168201915b50505050508152602001826002018054610b5d90612ea0565b80601f0160208091040260200160405190810160405280929190818152602001828054610b8990612ea0565b8015610bd65780601f10610bab57610100808354040283529160200191610bd6565b820191906000526020600020905b815481529060010190602001808311610bb957829003601f168201915b50505050508152602001826003018054610bef90612ea0565b80601f0160208091040260200160405190810160405280929190818152602001828054610c1b90612ea0565b8015610c685780601f10610c3d57610100808354040283529160200191610c68565b820191906000526020600020905b815481529060010190602001808311610c4b57829003601f168201915b5050505050815250838381518110610c8357610c82612ed2565b5b6020026020010181905250508080610c9a90612f30565b9150506109e3565b508091505090565b610cb2611759565b610cbb57600080fd5b600260008273ffffffffffffffffffffffffffffffffffffffff1673ffffffffffffffffffffffffffffffffffffffff168152602001908152602001600020600080820160006101000a81549073ffffffffffffffffffffffffffffffffffffffff0219169055600182016000610d329190611da8565b600282016000610d429190611da8565b600382016000610d529190611da8565b505060005b600680549050811015610f0f578173ffffffffffffffffffffffffffffffffffffffff1660068281548110610d8f57610d8e612ed2565b5b9060005260206000200160009054906101000a900473ffffffffffffffffffffffffffffffffffffffff1673ffffffffffffffffffffffffffffffffffffffff161415610efc5760008190505b6001600680549050610dee9190612f79565b811015610eaf576006600182610e049190612fad565b81548110610e1557610e14612ed2565b5b9060005260206000200160009054906101000a900473ffffffffffffffffffffffffffffffffffffffff1660068281548110610e5457610e53612ed2565b5b9060005260206000200160006101000a81548173ffffffffffffffffffffffffffffffffffffffff021916908373ffffffffffffffffffffffffffffffffffffffff1602179055508080610ea790612f30565b915050610ddc565b506006805480610ec257610ec1613003565b5b6001900381819060005260206000200160006101000a81549073ffffffffffffffffffffffffffffffffffffffff02191690559055610f0f565b8080610f0790612f30565b915050610d57565b5050565b610f1b611759565b610f2457600080fd5b600073ffffffffffffffffffffffffffffffffffffffff1660008054906101000a900473ffffffffffffffffffffffffffffffffffffffff1673ffffffffffffffffffffffffffffffffffffffff167f5c486528ec3e3f0ea91181cff8116f02bfa350e03b8b6f12e00765adbb5af85c60405160405180910390a360008060006101000a81548173ffffffffffffffffffffffffffffffffffffffff021916908373ffffffffffffffffffffffffffffffffffffffff160217905550565b6000835111611026576040517f08c379a000000000000000000000000000000000000000000000000000000000815260040161101d9061307e565b60405180910390fd5b600082511161106a576040517f08c379a0000000000000000000000000000000000000000000000000000000008152600401611061906130ea565b60405180910390fd5b60008151116110ae576040517f08c379a00000000000000000000000000000000000000000000000000000000081526004016110a590613156565b60405180910390fd5b600060405180608001604052803373ffffffffffffffffffffffffffffffffffffffff16815260200185815260200184815260200183815250905080600260003373ffffffffffffffffffffffffffffffffffffffff1673ffffffffffffffffffffffffffffffffffffffff16815260200190815260200160002060008201518160000160006101000a81548173ffffffffffffffffffffffffffffffffffffffff021916908373ffffffffffffffffffffffffffffffffffffffff160217905550602082015181600101908051906020019061118c929190611de8565b5060408201518160020190805190602001906111a9929190611de8565b5060608201518160030190805190602001906111c6929190611de8565b509050506006339080600181540180825580915050600190039060005260206000200160009091909190916101000a81548173ffffffffffffffffffffffffffffffffffffffff021916908373ffffffffffffffffffffffffffffffffffffffff1602179055503373ffffffffffffffffffffffffffffffffffffffff167fbcbef19da25a697769530892b82226268acaa956eb05fe4add600e1a1016473285858560405161127793929190613176565b60405180910390a250505050565b61128d611759565b61129657600080fd5b826003846040516112a79190612e5a565b908152602001604051809103902060000190805190602001906112cb929190611de8565b50816003846040516112dd9190612e5a565b90815260200160405180910390206001019080519060200190611301929190611e6e565b5060005b82518110156114ab57600082828151811061132357611322612ed2565b5b602002602001015167ffffffffffffffff81111561134457611343611fde565b5b6040519080825280602002602001820160405280156113725781602001602082028036833780820191505090505b50905060005b83838151811061138b5761138a612ed2565b5b602002602001015181101561142a576000620186a033888887815181106113b5576113b4612ed2565b5b6020026020010151856040516020016113d1949392919061322b565b6040516020818303038152906040528051906020012060001c6113f491906132a0565b90508083838151811061140a57611409612ed2565b5b60200260200101818152505050808061142290612f30565b915050611378565b508060038660405161143c9190612e5a565b90815260200160405180910390206002018584815181106114605761145f612ed2565b5b60200260200101516040516114759190612e5a565b90815260200160405180910390209080519060200190611496929190611ece565b505080806114a390612f30565b915050611305565b50505050565b60006003866040516114c39190612e5a565b9081526020016040518091039020600201856040516114e29190612e5a565b908152602001604051809103902080548060200260200160405190810160405280929190818152602001828054801561153a57602002820191906000526020600020905b815481526020019060010190808311611526575b505050505090506000815111611585576040517f08c379a000000000000000000000000000000000000000000000000000000000815260040161157c9061331d565b60405180910390fd5b6004600083815260200190815260200160002060009054906101000a900460ff16156115e6576040517f08c379a00000000000000000000000000000000000000000000000000000000081526004016115dd90613389565b60405180910390fd5b6000805b8251811015611631578383828151811061160757611606612ed2565b5b6020026020010151141561161e5760019150611631565b808061162990612f30565b9150506115ea565b5080611672576040517f08c379a0000000000000000000000000000000000000000000000000000000008152600401611669906133f5565b60405180910390fd5b60016004600085815260200190815260200160002060006101000a81548160ff0219169083151502179055506003876040516116ae9190612e5a565b9081526020016040518091039020600301866040516116cd9190612e5a565b90815260200160405180910390206040518060400160405280878152602001868152509080600181540180825580915050600190039060005260206000209060060201600090919091909150600082015181600001906005611730929190611f1b565b50602082015181600501908051906020019061174d929190611de8565b50505050505050505050565b60008060009054906101000a900473ffffffffffffffffffffffffffffffffffffffff1673ffffffffffffffffffffffffffffffffffffffff163373ffffffffffffffffffffffffffffffffffffffff1614905090565b6060600115156117be611759565b151514806117d85750600115156117d43361187e565b1515145b1561186c576003836040516117ed9190612e5a565b90815260200160405180910390206002018260405161180c9190612e5a565b908152602001604051809103902080548060200260200160405190810160405280929190818152602001828054801561186457602002820191906000526020600020905b815481526020019060010190808311611850575b505050505090505b92915050565b61187b81611adc565b50565b6000611894826001611b3690919063ffffffff16565b9050919050565b600681815481106118ab57600080fd5b906000526020600020016000915054906101000a900473ffffffffffffffffffffffffffffffffffffffff1681565b60008060009054906101000a900473ffffffffffffffffffffffffffffffffffffffff16905090565b6005818154811061191357600080fd5b906000526020600020906006020160009150905080600501805461193690612ea0565b80601f016020809104026020016040519081016040528092919081815260200182805461196290612ea0565b80156119af5780601f10611984576101008083540402835291602001916119af565b820191906000526020600020905b81548152906001019060200180831161199257829003601f168201915b5050505050905081565b6119c1611759565b6119ca57600080fd5b6119d381611bc8565b50565b600073ffffffffffffffffffffffffffffffffffffffff168173ffffffffffffffffffffffffffffffffffffffff161415611a1057600080fd5b611a1a8282611b36565b15611a2457600080fd5b60018260000160008373ffffffffffffffffffffffffffffffffffffffff1673ffffffffffffffffffffffffffffffffffffffff16815260200190815260200160002060006101000a81548160ff0219169083151502179055505050565b611a968160016119d690919063ffffffff16565b8073ffffffffffffffffffffffffffffffffffffffff167f04e1c63d2b2fafca3496ea9c3f23b77835b9a91f5d74802ced76b7f929b3265e60405160405180910390a250565b611af0816001611cbf90919063ffffffff16565b8073ffffffffffffffffffffffffffffffffffffffff167f024a5dd50126818a1d488f90df37ad02592196a4ea744aff479981813929773460405160405180910390a250565b60008073ffffffffffffffffffffffffffffffffffffffff168273ffffffffffffffffffffffffffffffffffffffff161415611b7157600080fd5b8260000160008373ffffffffffffffffffffffffffffffffffffffff1673ffffffffffffffffffffffffffffffffffffffff16815260200190815260200160002060009054906101000a900460ff16905092915050565b600073ffffffffffffffffffffffffffffffffffffffff168173ffffffffffffffffffffffffffffffffffffffff161415611c0257600080fd5b8073ffffffffffffffffffffffffffffffffffffffff1660008054906101000a900473ffffffffffffffffffffffffffffffffffffffff1673ffffffffffffffffffffffffffffffffffffffff167f5c486528ec3e3f0ea91181cff8116f02bfa350e03b8b6f12e00765adbb5af85c60405160405180910390a3806000806101000a81548173ffffffffffffffffffffffffffffffffffffffff021916908373ffffffffffffffffffffffffffffffffffffffff16021790555050565b600073ffffffffffffffffffffffffffffffffffffffff168173ffffffffffffffffffffffffffffffffffffffff161415611cf957600080fd5b611d038282611b36565b611d0c57600080fd5b60008260000160008373ffffffffffffffffffffffffffffffffffffffff1673ffffffffffffffffffffffffffffffffffffffff16815260200190815260200160002060006101000a81548160ff0219169083151502179055505050565b6040518060800160405280600073ffffffffffffffffffffffffffffffffffffffff1681526020016060815260200160608152602001606081525090565b508054611db490612ea0565b6000825580601f10611dc65750611de5565b601f016020900490600052602060002090810190611de49190611f6e565b5b50565b828054611df490612ea0565b90600052602060002090601f016020900481019282611e165760008555611e5d565b82601f10611e2f57805160ff1916838001178555611e5d565b82800160010185558215611e5d579182015b82811115611e5c578251825591602001919060010190611e41565b5b509050611e6a9190611f6e565b5090565b828054828255906000526020600020908101928215611ebd579160200282015b82811115611ebc578251829080519060200190611eac929190611de8565b5091602001919060010190611e8e565b5b509050611eca9190611f8b565b5090565b828054828255906000526020600020908101928215611f0a579160200282015b82811115611f09578251825591602001919060010190611eee565b5b509050611f179190611f6e565b5090565b8260058101928215611f5d579160200282015b82811115611f5c578251829080519060200190611f4c929190611de8565b5091602001919060010190611f2e565b5b509050611f6a9190611f8b565b5090565b5b80821115611f87576000816000905550600101611f6f565b5090565b5b80821115611fab5760008181611fa29190611da8565b50600101611f8c565b5090565b6000604051905090565b600080fd5b600080fd5b600080fd5b600080fd5b6000601f19601f8301169050919050565b7f4e487b7100000000000000000000000000000000000000000000000000000000600052604160045260246000fd5b61201682611fcd565b810181811067ffffffffffffffff8211171561203557612034611fde565b5b80604052505050565b6000612048611faf565b9050612054828261200d565b919050565b600067ffffffffffffffff82111561207457612073611fde565b5b61207d82611fcd565b9050602081019050919050565b82818337600083830152505050565b60006120ac6120a784612059565b61203e565b9050828152602081018484840111156120c8576120c7611fc8565b5b6120d384828561208a565b509392505050565b600082601f8301126120f0576120ef611fc3565b5b8135612100848260208601612099565b91505092915050565b600080604083850312156121205761211f611fb9565b5b600083013567ffffffffffffffff81111561213e5761213d611fbe565b5b61214a858286016120db565b925050602083013567ffffffffffffffff81111561216b5761216a611fbe565b5b612177858286016120db565b9150509250929050565b600081519050919050565b600082825260208201905092915050565b6000819050602082019050919050565b600060059050919050565b600081905092915050565b6000819050919050565b600081519050919050565b600082825260208201905092915050565b60005b838110156122075780820151818401526020810190506121ec565b83811115612216576000848401525b50505050565b6000612227826121cd565b61223181856121d8565b93506122418185602086016121e9565b61224a81611fcd565b840191505092915050565b6000612261838361221c565b905092915050565b6000602082019050919050565b6000612281826121ad565b61228b81856121b8565b93508360208202850161229d856121c3565b8060005b858110156122d957848403895281516122ba8582612255565b94506122c583612269565b925060208a019950506001810190506122a1565b50829750879550505050505092915050565b600060408301600083015184820360008601526123088282612276565b91505060208301518482036020860152612322828261221c565b9150508091505092915050565b600061233b83836122eb565b905092915050565b6000602082019050919050565b600061235b82612181565b612365818561218c565b9350836020820285016123778561219d565b8060005b858110156123b35784840389528151612394858261232f565b945061239f83612343565b925060208a0199505060018101905061237b565b50829750879550505050505092915050565b600060208201905081810360008301526123df8184612350565b905092915050565b600073ffffffffffffffffffffffffffffffffffffffff82169050919050565b6000612412826123e7565b9050919050565b61242281612407565b811461242d57600080fd5b50565b60008135905061243f81612419565b92915050565b60006020828403121561245b5761245a611fb9565b5b600061246984828501612430565b91505092915050565b61247b81612407565b82525050565b600082825260208201905092915050565b600061249d826121cd565b6124a78185612481565b93506124b78185602086016121e9565b6124c081611fcd565b840191505092915050565b60006080820190506124e06000830187612472565b81810360208301526124f28186612492565b905081810360408301526125068185612492565b9050818103606083015261251a8184612492565b905095945050505050565b60006020828403121561253b5761253a611fb9565b5b600082013567ffffffffffffffff81111561255957612558611fbe565b5b612565848285016120db565b91505092915050565b600081519050919050565b600082825260208201905092915050565b6000819050602082019050919050565b6000602082019050919050565b60006125b28261256e565b6125bc8185612579565b9350836020820285016125ce8561258a565b8060005b8581101561260a57848403895281516125eb8582612255565b94506125f68361259a565b925060208a019950506001810190506125d2565b50829750879550505050505092915050565b600060408201905081810360008301526126368185612492565b9050818103602083015261264a81846125a7565b90509392505050565b600081519050919050565b600082825260208201905092915050565b6000819050602082019050919050565b61268881612407565b82525050565b60006080830160008301516126a6600086018261267f565b50602083015184820360208601526126be828261221c565b915050604083015184820360408601526126d8828261221c565b915050606083015184820360608601526126f2828261221c565b9150508091505092915050565b600061270b838361268e565b905092915050565b6000602082019050919050565b600061272b82612653565b612735818561265e565b9350836020820285016127478561266f565b8060005b85811015612783578484038952815161276485826126ff565b945061276f83612713565b925060208a0199505060018101905061274b565b50829750879550505050505092915050565b600060208201905081810360008301526127af8184612720565b905092915050565b6000806000606084860312156127d0576127cf611fb9565b5b600084013567ffffffffffffffff8111156127ee576127ed611fbe565b5b6127fa868287016120db565b935050602084013567ffffffffffffffff81111561281b5761281a611fbe565b5b612827868287016120db565b925050604084013567ffffffffffffffff81111561284857612847611fbe565b5b612854868287016120db565b9150509250925092565b600067ffffffffffffffff82111561287957612878611fde565b5b602082029050602081019050919050565b600080fd5b60006128a261289d8461285e565b61203e565b905080838252602082019050602084028301858111156128c5576128c461288a565b5b835b8181101561290c57803567ffffffffffffffff8111156128ea576128e9611fc3565b5b8086016128f789826120db565b855260208501945050506020810190506128c7565b5050509392505050565b600082601f83011261292b5761292a611fc3565b5b813561293b84826020860161288f565b91505092915050565b600067ffffffffffffffff82111561295f5761295e611fde565b5b602082029050602081019050919050565b6000819050919050565b61298381612970565b811461298e57600080fd5b50565b6000813590506129a08161297a565b92915050565b60006129b96129b484612944565b61203e565b905080838252602082019050602084028301858111156129dc576129db61288a565b5b835b81811015612a0557806129f18882612991565b8452602084019350506020810190506129de565b5050509392505050565b600082601f830112612a2457612a23611fc3565b5b8135612a348482602086016129a6565b91505092915050565b600080600060608486031215612a5657612a55611fb9565b5b600084013567ffffffffffffffff811115612a7457612a73611fbe565b5b612a80868287016120db565b935050602084013567ffffffffffffffff811115612aa157612aa0611fbe565b5b612aad86828701612916565b925050604084013567ffffffffffffffff811115612ace57612acd611fbe565b5b612ada86828701612a0f565b9150509250925092565b600067ffffffffffffffff821115612aff57612afe611fde565b5b602082029050919050565b6000612b1d612b1884612ae4565b61203e565b90508060208402830185811115612b3757612b3661288a565b5b835b81811015612b7e57803567ffffffffffffffff811115612b5c57612b5b611fc3565b5b808601612b6989826120db565b85526020850194505050602081019050612b39565b5050509392505050565b600082601f830112612b9d57612b9c611fc3565b5b6005612baa848285612b0a565b91505092915050565b600080600080600060a08688031215612bcf57612bce611fb9565b5b600086013567ffffffffffffffff811115612bed57612bec611fbe565b5b612bf9888289016120db565b955050602086013567ffffffffffffffff811115612c1a57612c19611fbe565b5b612c26888289016120db565b945050604086013567ffffffffffffffff811115612c4757612c46611fbe565b5b612c5388828901612b88565b935050606086013567ffffffffffffffff811115612c7457612c73611fbe565b5b612c80888289016120db565b9250506080612c9188828901612991565b9150509295509295909350565b60008115159050919050565b612cb381612c9e565b82525050565b6000602082019050612cce6000830184612caa565b92915050565b600081519050919050565b600082825260208201905092915050565b6000819050602082019050919050565b612d0981612970565b82525050565b6000612d1b8383612d00565b60208301905092915050565b6000602082019050919050565b6000612d3f82612cd4565b612d498185612cdf565b9350612d5483612cf0565b8060005b83811015612d85578151612d6c8882612d0f565b9750612d7783612d27565b925050600181019050612d58565b5085935050505092915050565b60006020820190508181036000830152612dac8184612d34565b905092915050565b600060208284031215612dca57612dc9611fb9565b5b6000612dd884828501612991565b91505092915050565b6000602082019050612df66000830184612472565b92915050565b60006020820190508181036000830152612e168184612492565b905092915050565b600081905092915050565b6000612e34826121cd565b612e3e8185612e1e565b9350612e4e8185602086016121e9565b80840191505092915050565b6000612e668284612e29565b915081905092915050565b7f4e487b7100000000000000000000000000000000000000000000000000000000600052602260045260246000fd5b60006002820490506001821680612eb857607f821691505b60208210811415612ecc57612ecb612e71565b5b50919050565b7f4e487b7100000000000000000000000000000000000000000000000000000000600052603260045260246000fd5b7f4e487b7100000000000000000000000000000000000000000000000000000000600052601160045260246000fd5b6000612f3b82612970565b91507fffffffffffffffffffffffffffffffffffffffffffffffffffffffffffffffff821415612f6e57612f6d612f01565b5b600182019050919050565b6000612f8482612970565b9150612f8f83612970565b925082821015612fa257612fa1612f01565b5b828203905092915050565b6000612fb882612970565b9150612fc383612970565b9250827fffffffffffffffffffffffffffffffffffffffffffffffffffffffffffffffff03821115612ff857612ff7612f01565b5b828201905092915050565b7f4e487b7100000000000000000000000000000000000000000000000000000000600052603160045260246000fd5b7f5465616368657220636f64652063616e6e6f7420626520656d70747900000000600082015250565b6000613068601c83612481565b915061307382613032565b602082019050919050565b600060208201905081810360008301526130978161305b565b9050919050565b7f5375626a65637420636f6465732063616e6e6f7420626520656d707479000000600082015250565b60006130d4601d83612481565b91506130df8261309e565b602082019050919050565b60006020820190508181036000830152613103816130c7565b9050919050565b7f53747564656e7420636f756e74732063616e6e6f7420626520656d7074790000600082015250565b6000613140601e83612481565b915061314b8261310a565b602082019050919050565b6000602082019050818103600083015261316f81613133565b9050919050565b600060608201905081810360008301526131908186612492565b905081810360208301526131a48185612492565b905081810360408301526131b88184612492565b9050949350505050565b60008160601b9050919050565b60006131da826131c2565b9050919050565b60006131ec826131cf565b9050919050565b6132046131ff82612407565b6131e1565b82525050565b6000819050919050565b61322561322082612970565b61320a565b82525050565b600061323782876131f3565b6014820191506132478286612e29565b91506132538285612e29565b915061325f8284613214565b60208201915081905095945050505050565b7f4e487b7100000000000000000000000000000000000000000000000000000000600052601260045260246000fd5b60006132ab82612970565b91506132b683612970565b9250826132c6576132c5613271565b5b828206905092915050565b7f496e76616c69642074656163686572206f72207375626a65637420636f646500600082015250565b6000613307601f83612481565b9150613312826132d1565b602082019050919050565b60006020820190508181036000830152613336816132fa565b9050919050565b7f50617373776f72642068617320616c7265616479206265656e20757365640000600082015250565b6000613373601e83612481565b915061337e8261333d565b602082019050919050565b600060208201905081810360008301526133a281613366565b9050919050565b7f496e76616c69642070617373776f726400000000000000000000000000000000600082015250565b60006133df601083612481565b91506133ea826133a9565b602082019050919050565b6000602082019050818103600083015261340e816133d2565b905091905056fea26469706673582212206bec340b131f44276c064a8fe904306faf5456213e36dca6ed2b4a6dc9c2a86a64736f6c634300080b0033",
  "immutableReferences": {},
  "source": "// SPDX-License-Identifier: GPL-3.0\r\npragma solidity >=0.8.2 <0.9.0;\r\n\r\n// inherited contracts\r\nimport \"./Ownable.sol\";\r\nimport \"./TeacherRole.sol\";\r\n\r\ncontract AcadChainContract is Ownable, TeacherRole {\r\n    struct TeacherData {\r\n        string code;\r\n        string[] subjectCodes;\r\n        mapping(string => uint[]) passwordMap;\r\n        mapping(string => Review[]) reviewMap;\r\n    }\r\n\r\n    struct Review {\r\n        string[5] ratings;\r\n        string comments;\r\n    }\r\n\r\n    struct TeacherRegistrationData {\r\n        address userAddress;\r\n        string teacherCode;\r\n        string subjectCodes;\r\n        string studentCounts;\r\n    }\r\n\r\n    mapping(address => TeacherRegistrationData) public teacherRegistrationData;\r\n    mapping(string => TeacherData) teachers;\r\n    mapping(uint => bool) usedPasswords;\r\n\r\n    Review[] public reviews;\r\n    address[] public teacherRegistrationKeys;\r\n\r\n    modifier checkEitherOwnerOrTeacher() {\r\n        if ((isOwner() == true) || (isTeacher(msg.sender) == true)) {\r\n            _;\r\n        }\r\n    }\r\n\r\n    event TeacherRegistrationDataStored(address indexed teacherAddress, string teacherCode, string subjectCodes, string studentCounts);\r\n\r\n\r\n    function storeTeacherRegistrationData(\r\n        string memory _teacherCode,\r\n        string memory _subjectCodes,\r\n        string memory _studentCounts\r\n    ) public {\r\n        // Input validation\r\n        require(bytes(_teacherCode).length > 0, \"Teacher code cannot be empty\");\r\n        require(bytes(_subjectCodes).length > 0, \"Subject codes cannot be empty\");\r\n        require(bytes(_studentCounts).length > 0, \"Student counts cannot be empty\");\r\n        TeacherRegistrationData memory newTeacherRegistrationData = TeacherRegistrationData({\r\n            userAddress: msg.sender,\r\n            teacherCode: _teacherCode,\r\n            subjectCodes: _subjectCodes,\r\n            studentCounts: _studentCounts\r\n        });\r\n        teacherRegistrationData[msg.sender] = newTeacherRegistrationData;\r\n        teacherRegistrationKeys.push(msg.sender);\r\n        emit TeacherRegistrationDataStored(msg.sender, _teacherCode, _subjectCodes, _studentCounts);\r\n    }\r\n\r\n    function getTeacherRegistrationData()\r\n        public\r\n        view\r\n        returns (TeacherRegistrationData[] memory)\r\n    {\r\n        TeacherRegistrationData[] memory data = new TeacherRegistrationData[](teacherRegistrationKeys.length);\r\n\r\n        for (uint i = 0; i < teacherRegistrationKeys.length; i++) {\r\n            TeacherRegistrationData storage trd = teacherRegistrationData[teacherRegistrationKeys[i]];\r\n            data[i] = TeacherRegistrationData({\r\n                userAddress: trd.userAddress,\r\n                teacherCode: trd.teacherCode,\r\n                subjectCodes: trd.subjectCodes,\r\n                studentCounts: trd.studentCounts\r\n            });\r\n        }\r\n        return data;\r\n    }\r\n\r\n    function deleteTeacherRegistrationData(address _userAddress) public onlyOwner {\r\n    // Delete data associated with the specified user address\r\n    delete teacherRegistrationData[_userAddress];\r\n\r\n    // Find the index of the user address in teacherRegistrationKeys and remove it\r\n    for (uint i = 0; i < teacherRegistrationKeys.length; i++) {\r\n        if (teacherRegistrationKeys[i] == _userAddress) {\r\n            // Shift the remaining elements to fill the gap\r\n            for (uint j = i; j < teacherRegistrationKeys.length - 1; j++) {\r\n                teacherRegistrationKeys[j] = teacherRegistrationKeys[j + 1];\r\n            }\r\n\r\n            // Remove the last element to avoid duplication\r\n            teacherRegistrationKeys.pop();\r\n            break; // No need to continue once the address is found and removed\r\n        }\r\n    }\r\n    }\r\n\r\n    function addNewTeacher(\r\n        string memory _teacherCode,\r\n        string[] memory _subjectCodes,\r\n        uint[] memory _studentCount\r\n    ) public onlyOwner {\r\n        teachers[_teacherCode].code = _teacherCode;\r\n        teachers[_teacherCode].subjectCodes = _subjectCodes;\r\n\r\n        for (uint i = 0; i < _subjectCodes.length; i++) {\r\n            uint[] memory passwords = new uint[](_studentCount[i]);\r\n            for (uint j = 0; j < _studentCount[i]; j++) {\r\n                uint password = uint(\r\n                    keccak256(\r\n                        abi.encodePacked(\r\n                            msg.sender,\r\n                            _teacherCode,\r\n                            _subjectCodes[i],\r\n                            j\r\n                        )\r\n                    )\r\n                ) % 100000;\r\n                passwords[j] = password;\r\n            }\r\n            teachers[_teacherCode].passwordMap[_subjectCodes[i]] = passwords;\r\n        }\r\n    }\r\n\r\n    function getTeacher(\r\n        string memory _teacherCode\r\n    )\r\n        public\r\n        view\r\n        checkEitherOwnerOrTeacher\r\n        returns (string memory code, string[] memory subjectCodes)\r\n    {\r\n        TeacherData storage teacher = teachers[_teacherCode];\r\n        return (teacher.code, teacher.subjectCodes);\r\n    }\r\n\r\n    function getPasswords(\r\n        string memory _teacherCode,\r\n        string memory _subjectCode\r\n    ) public view checkEitherOwnerOrTeacher returns (uint[] memory passwords) {\r\n        return teachers[_teacherCode].passwordMap[_subjectCode];\r\n    }\r\n\r\n    function getReview(\r\n        string memory _teacherCode,\r\n        string memory _subjectCode\r\n    ) public view checkEitherOwnerOrTeacher returns (Review[] memory review) {\r\n        return (teachers[_teacherCode].reviewMap[_subjectCode]);\r\n    }\r\n\r\n    function addReview(\r\n        string memory _teacherCode,\r\n        string memory _subjectCode,\r\n        string[5] memory _ratings,\r\n        string memory _comments,\r\n        uint _password\r\n    ) public {\r\n        uint[] memory passwords = teachers[_teacherCode].passwordMap[\r\n            _subjectCode\r\n        ];\r\n        require(passwords.length > 0, \"Invalid teacher or subject code\");\r\n        require(!usedPasswords[_password], \"Password has already been used\");\r\n        bool passwordMatch = false;\r\n        for (uint i = 0; i < passwords.length; i++) {\r\n            if (passwords[i] == _password) {\r\n                passwordMatch = true;\r\n                break;\r\n            }\r\n        }\r\n        require(passwordMatch, \"Invalid password\");\r\n        usedPasswords[_password] = true;\r\n        teachers[_teacherCode].reviewMap[_subjectCode].push(\r\n            Review(_ratings, _comments)\r\n        );\r\n    }\r\n}\r\n",
  "sourcePath": "C:\\Users\\pragy\\Desktop\\Workspaces\\Projects\\AcadChainDapp\\AcadChain\\AcadChainBlockchain\\contracts\\AcadChainContract.sol",
  "compiler": {
    "name": "solc",
    "version": "0.8.11+commit.d7f03943.Emscripten.clang"
  },
  "schemaVersion": "3.4.14",
  "updatedAt": "2024-01-12T21:14:38.277Z",
  "networkType": "ethereum",
  "devdoc": {
    "kind": "dev",
    "methods": {},
    "version": 1
  },
  "userdoc": {
    "kind": "user",
    "methods": {
      "isOwner()": {
        "notice": "Check if the calling address is the owner of the contract"
      },
      "ownerLookup()": {
        "notice": "Look up the address of the owner"
      },
      "renounceOwnership()": {
        "notice": "Define a function to renounce ownerhip"
      },
      "transferOwnership(address)": {
        "notice": "Define a public function to transfer ownership"
      }
    },
    "version": 1
  }
}