{
  "contractName": "AcadChainContract",
  "abi": [
    {
      "anonymous": false,
      "inputs": [
        {
          "indexed": true,
          "internalType": "address",
          "name": "account",
          "type": "address"
        }
      ],
      "name": "TeacherAdded",
      "type": "event"
    },
    {
      "anonymous": false,
      "inputs": [
        {
          "indexed": true,
          "internalType": "address",
          "name": "account",
          "type": "address"
        }
      ],
      "name": "TeacherRemoved",
      "type": "event"
    },
    {
      "anonymous": false,
      "inputs": [
        {
          "indexed": true,
          "internalType": "address",
          "name": "oldOwner",
          "type": "address"
        },
        {
          "indexed": true,
          "internalType": "address",
          "name": "newOwner",
          "type": "address"
        }
      ],
      "name": "TransferOwnership",
      "type": "event"
    },
    {
      "constant": true,
      "inputs": [],
      "name": "isOwner",
      "outputs": [
        {
          "internalType": "bool",
          "name": "",
          "type": "bool"
        }
      ],
      "payable": false,
      "stateMutability": "view",
      "type": "function"
    },
    {
      "constant": true,
      "inputs": [
        {
          "internalType": "address",
          "name": "account",
          "type": "address"
        }
      ],
      "name": "isTeacher",
      "outputs": [
        {
          "internalType": "bool",
          "name": "",
          "type": "bool"
        }
      ],
      "payable": false,
      "stateMutability": "view",
      "type": "function"
    },
    {
      "constant": true,
      "inputs": [],
      "name": "ownerLookup",
      "outputs": [
        {
          "internalType": "address",
          "name": "",
          "type": "address"
        }
      ],
      "payable": false,
      "stateMutability": "view",
      "type": "function"
    },
    {
      "constant": false,
      "inputs": [],
      "name": "renounceOwnership",
      "outputs": [],
      "payable": false,
      "stateMutability": "nonpayable",
      "type": "function"
    },
    {
      "constant": false,
      "inputs": [
        {
          "internalType": "address",
          "name": "account",
          "type": "address"
        }
      ],
      "name": "renounceTeacher",
      "outputs": [],
      "payable": false,
      "stateMutability": "nonpayable",
      "type": "function"
    },
    {
      "constant": true,
      "inputs": [
        {
          "internalType": "uint256",
          "name": "",
          "type": "uint256"
        }
      ],
      "name": "reviews",
      "outputs": [
        {
          "internalType": "string",
          "name": "comments",
          "type": "string"
        }
      ],
      "payable": false,
      "stateMutability": "view",
      "type": "function"
    },
    {
      "constant": true,
      "inputs": [
        {
          "internalType": "address",
          "name": "",
          "type": "address"
        }
      ],
      "name": "teacherRegistrationData",
      "outputs": [
        {
          "internalType": "address",
          "name": "userAddress",
          "type": "address"
        },
        {
          "internalType": "string",
          "name": "teacherCode",
          "type": "string"
        },
        {
          "internalType": "string",
          "name": "subjectCodes",
          "type": "string"
        },
        {
          "internalType": "string",
          "name": "studentCounts",
          "type": "string"
        }
      ],
      "payable": false,
      "stateMutability": "view",
      "type": "function"
    },
    {
      "constant": true,
      "inputs": [
        {
          "internalType": "uint256",
          "name": "",
          "type": "uint256"
        }
      ],
      "name": "teacherRegistrationKeys",
      "outputs": [
        {
          "internalType": "address",
          "name": "",
          "type": "address"
        }
      ],
      "payable": false,
      "stateMutability": "view",
      "type": "function"
    },
    {
      "constant": false,
      "inputs": [
        {
          "internalType": "address",
          "name": "newOwner",
          "type": "address"
        }
      ],
      "name": "transferOwnership",
      "outputs": [],
      "payable": false,
      "stateMutability": "nonpayable",
      "type": "function"
    },
    {
      "constant": false,
      "inputs": [
        {
          "internalType": "address",
          "name": "_userAddress",
          "type": "address"
        },
        {
          "internalType": "string",
          "name": "_teacherCode",
          "type": "string"
        },
        {
          "internalType": "string",
          "name": "_subjectCodes",
          "type": "string"
        },
        {
          "internalType": "string",
          "name": "_studentCounts",
          "type": "string"
        }
      ],
      "name": "storeTeacherRegistrationData",
      "outputs": [],
      "payable": false,
      "stateMutability": "nonpayable",
      "type": "function"
    },
    {
      "constant": true,
      "inputs": [],
      "name": "getTeacherRegistrationData",
      "outputs": [
        {
          "components": [
            {
              "internalType": "address",
              "name": "userAddress",
              "type": "address"
            },
            {
              "internalType": "string",
              "name": "teacherCode",
              "type": "string"
            },
            {
              "internalType": "string",
              "name": "subjectCodes",
              "type": "string"
            },
            {
              "internalType": "string",
              "name": "studentCounts",
              "type": "string"
            }
          ],
          "internalType": "struct AcadChainContract.TeacherRegistrationData[]",
          "name": "",
          "type": "tuple[]"
        }
      ],
      "payable": false,
      "stateMutability": "view",
      "type": "function"
    },
    {
      "constant": false,
      "inputs": [
        {
          "internalType": "address",
          "name": "_userAddress",
          "type": "address"
        }
      ],
      "name": "deleteTeacherRegistrationData",
      "outputs": [],
      "payable": false,
      "stateMutability": "nonpayable",
      "type": "function"
    },
    {
      "constant": false,
      "inputs": [
        {
          "internalType": "address",
          "name": "account",
          "type": "address"
        }
      ],
      "name": "addTeacher",
      "outputs": [],
      "payable": false,
      "stateMutability": "nonpayable",
      "type": "function"
    },
    {
      "constant": false,
      "inputs": [
        {
          "internalType": "string",
          "name": "_teacherCode",
          "type": "string"
        },
        {
          "internalType": "string[]",
          "name": "_subjectCodes",
          "type": "string[]"
        },
        {
          "internalType": "uint256[]",
          "name": "_studentCount",
          "type": "uint256[]"
        }
      ],
      "name": "addTeacher",
      "outputs": [],
      "payable": false,
      "stateMutability": "nonpayable",
      "type": "function"
    },
    {
      "constant": true,
      "inputs": [
        {
          "internalType": "string",
          "name": "_teacherCode",
          "type": "string"
        }
      ],
      "name": "getTeacher",
      "outputs": [
        {
          "internalType": "string",
          "name": "code",
          "type": "string"
        },
        {
          "internalType": "string[]",
          "name": "subjectCodes",
          "type": "string[]"
        }
      ],
      "payable": false,
      "stateMutability": "view",
      "type": "function"
    },
    {
      "constant": true,
      "inputs": [
        {
          "internalType": "string",
          "name": "_teacherCode",
          "type": "string"
        },
        {
          "internalType": "string",
          "name": "_subjectCode",
          "type": "string"
        }
      ],
      "name": "getPasswords",
      "outputs": [
        {
          "internalType": "uint256[]",
          "name": "passwords",
          "type": "uint256[]"
        }
      ],
      "payable": false,
      "stateMutability": "view",
      "type": "function"
    },
    {
      "constant": true,
      "inputs": [
        {
          "internalType": "string",
          "name": "_teacherCode",
          "type": "string"
        },
        {
          "internalType": "string",
          "name": "_subjectCode",
          "type": "string"
        }
      ],
      "name": "getReview",
      "outputs": [
        {
          "components": [
            {
              "internalType": "string[5]",
              "name": "ratings",
              "type": "string[5]"
            },
            {
              "internalType": "string",
              "name": "comments",
              "type": "string"
            }
          ],
          "internalType": "struct AcadChainContract.Review[]",
          "name": "",
          "type": "tuple[]"
        }
      ],
      "payable": false,
      "stateMutability": "view",
      "type": "function"
    },
    {
      "constant": false,
      "inputs": [
        {
          "internalType": "string",
          "name": "_teacherCode",
          "type": "string"
        },
        {
          "internalType": "string",
          "name": "_subjectCode",
          "type": "string"
        },
        {
          "internalType": "string[5]",
          "name": "_ratings",
          "type": "string[5]"
        },
        {
          "internalType": "string",
          "name": "_comments",
          "type": "string"
        },
        {
          "internalType": "uint256",
          "name": "_password",
          "type": "uint256"
        }
      ],
      "name": "addReview",
      "outputs": [],
      "payable": false,
      "stateMutability": "nonpayable",
      "type": "function"
    }
  ],
  "bytecode": "0x6080604052336000806101000a81548173ffffffffffffffffffffffffffffffffffffffff021916908373ffffffffffffffffffffffffffffffffffffffff1602179055506000809054906101000a900473ffffffffffffffffffffffffffffffffffffffff1673ffffffffffffffffffffffffffffffffffffffff16600073ffffffffffffffffffffffffffffffffffffffff167f5c486528ec3e3f0ea91181cff8116f02bfa350e03b8b6f12e00765adbb5af85c60405160405180910390a3620000d133620000d760201b60201c565b62000281565b620000f28160016200013860201b62001a2f1790919060201c565b8073ffffffffffffffffffffffffffffffffffffffff167f04e1c63d2b2fafca3496ea9c3f23b77835b9a91f5d74802ced76b7f929b3265e60405160405180910390a250565b600073ffffffffffffffffffffffffffffffffffffffff168173ffffffffffffffffffffffffffffffffffffffff1614156200017357600080fd5b620001858282620001ee60201b60201c565b156200019057600080fd5b60018260000160008373ffffffffffffffffffffffffffffffffffffffff1673ffffffffffffffffffffffffffffffffffffffff16815260200190815260200160002060006101000a81548160ff0219169083151502179055505050565b60008073ffffffffffffffffffffffffffffffffffffffff168273ffffffffffffffffffffffffffffffffffffffff1614156200022a57600080fd5b8260000160008373ffffffffffffffffffffffffffffffffffffffff1673ffffffffffffffffffffffffffffffffffffffff16815260200190815260200160002060009054906101000a900460ff16905092915050565b612e9e80620002916000396000f3fe608060405234801561001057600080fd5b50600436106101165760003560e01c806395a6ee3e116100a2578063aec37eb311610071578063aec37eb3146102cd578063bb631df7146102fd578063e02e64ea1461032d578063e83ddcea1461034b578063f2fde38b1461037b57610116565b806395a6ee3e146102495780639a3e36e414610265578063a0f2de2014610295578063abac9e1d146102b157610116565b80633ef36da8116100e95780633ef36da8146101cb5780634b454d10146101e9578063715018a614610205578063848b6aaa1461020f5780638f32d59b1461022b57610116565b8063045f94e31461011b5780631410c8c81461014b578063211281671461017e5780633bc6e309146101af575b600080fd5b610135600480360361013091908101906121f9565b610397565b60405161014291906129c0565b60405180910390f35b6101656004803603610160919081019061204d565b6105d9565b6040516101759493929190612966565b60405180910390f35b61019860048036036101939190810190612121565b6107f1565b6040516101a6929190612a63565b60405180910390f35b6101c960048036036101c4919081019061204d565b6109d3565b005b6101d36109f1565b6040516101e091906129e2565b60405180910390f35b61020360048036036101fe919081019061204d565b610cdd565b005b61020d610ef0565b005b61022960048036036102249190810190612265565b610fc0565b005b610233611265565b6040516102409190612a26565b60405180910390f35b610263600480360361025e9190810190612162565b6112bc565b005b61027f600480360361027a91908101906121f9565b6114a4565b60405161028c9190612a04565b60405180910390f35b6102af60048036036102aa919081019061204d565b611566565b005b6102cb60048036036102c69190810190612076565b611572565b005b6102e760048036036102e2919081019061204d565b61168f565b6040516102f49190612a26565b60405180910390f35b6103176004803603610312919081019061233c565b6116ac565b604051610324919061294b565b60405180910390f35b6103356116e8565b604051610342919061294b565b60405180910390f35b6103656004803603610360919081019061233c565b611711565b6040516103729190612a41565b60405180910390f35b6103956004803603610390919081019061204d565b6117d4565b005b6060600115156103a5611265565b151514806103bf5750600115156103bb3361168f565b1515145b156105d3576003836040516103d49190612934565b9081526020016040518091039020600301826040516103f39190612934565b9081526020016040518091039020805480602002602001604051908101604052809291908181526020016000905b828210156105cc578382906000526020600020906006020160405180604001604052908160008201600580602002604051908101604052809291906000905b82821015610513578382018054600181600116156101000203166002900480601f0160208091040260200160405190810160405280929190818152602001828054600181600116156101000203166002900480156104ff5780601f106104d4576101008083540402835291602001916104ff565b820191906000526020600020905b8154815290600101906020018083116104e257829003601f168201915b505050505081526020019060010190610460565b505050508152602001600582018054600181600116156101000203166002900480601f0160208091040260200160405190810160405280929190818152602001828054600181600116156101000203166002900480156105b45780601f10610589576101008083540402835291602001916105b4565b820191906000526020600020905b81548152906001019060200180831161059757829003601f168201915b50505050508152505081526020019060010190610421565b5050505090505b92915050565b60026020528060005260406000206000915090508060000160009054906101000a900473ffffffffffffffffffffffffffffffffffffffff1690806001018054600181600116156101000203166002900480601f0160208091040260200160405190810160405280929190818152602001828054600181600116156101000203166002900480156106ab5780601f10610680576101008083540402835291602001916106ab565b820191906000526020600020905b81548152906001019060200180831161068e57829003601f168201915b505050505090806002018054600181600116156101000203166002900480601f0160208091040260200160405190810160405280929190818152602001828054600181600116156101000203166002900480156107495780601f1061071e57610100808354040283529160200191610749565b820191906000526020600020905b81548152906001019060200180831161072c57829003601f168201915b505050505090806003018054600181600116156101000203166002900480601f0160208091040260200160405190810160405280929190818152602001828054600181600116156101000203166002900480156107e75780601f106107bc576101008083540402835291602001916107e7565b820191906000526020600020905b8154815290600101906020018083116107ca57829003601f168201915b5050505050905084565b60608060011515610800611265565b1515148061081a5750600115156108163361168f565b1515145b156109ce5760006003846040516108319190612934565b908152602001604051809103902090508060000181600101818054600181600116156101000203166002900480601f0160208091040260200160405190810160405280929190818152602001828054600181600116156101000203166002900480156108de5780601f106108b3576101008083540402835291602001916108de565b820191906000526020600020905b8154815290600101906020018083116108c157829003601f168201915b5050505050915080805480602002602001604051908101604052809291908181526020016000905b828210156109c2578382906000526020600020018054600181600116156101000203166002900480601f0160208091040260200160405190810160405280929190818152602001828054600181600116156101000203166002900480156109ae5780601f10610983576101008083540402835291602001916109ae565b820191906000526020600020905b81548152906001019060200180831161099157829003601f168201915b505050505081526020019060010190610906565b50505050905092509250505b915091565b6109dc3361168f565b6109e557600080fd5b6109ee816117f1565b50565b60608060008090505b600680549050811015610cd55760006002600060068481548110610a1a57fe5b9060005260206000200160009054906101000a900473ffffffffffffffffffffffffffffffffffffffff1673ffffffffffffffffffffffffffffffffffffffff1673ffffffffffffffffffffffffffffffffffffffff168152602001908152602001600020905060405180608001604052808260000160009054906101000a900473ffffffffffffffffffffffffffffffffffffffff1673ffffffffffffffffffffffffffffffffffffffff168152602001826001018054600181600116156101000203166002900480601f016020809104026020016040519081016040528092919081815260200182805460018160011615610100020316600290048015610b645780601f10610b3957610100808354040283529160200191610b64565b820191906000526020600020905b815481529060010190602001808311610b4757829003601f168201915b50505050508152602001826002018054600181600116156101000203166002900480601f016020809104026020016040519081016040528092919081815260200182805460018160011615610100020316600290048015610c065780601f10610bdb57610100808354040283529160200191610c06565b820191906000526020600020905b815481529060010190602001808311610be957829003601f168201915b50505050508152602001826003018054600181600116156101000203166002900480601f016020809104026020016040519081016040528092919081815260200182805460018160011615610100020316600290048015610ca85780601f10610c7d57610100808354040283529160200191610ca8565b820191906000526020600020905b815481529060010190602001808311610c8b57829003601f168201915b5050505050815250838381518110610cbc57fe5b60200260200101819052505080806001019150506109fa565b508091505090565b610ce5611265565b610cee57600080fd5b600260008273ffffffffffffffffffffffffffffffffffffffff1673ffffffffffffffffffffffffffffffffffffffff168152602001908152602001600020600080820160006101000a81549073ffffffffffffffffffffffffffffffffffffffff0219169055600182016000610d659190611b86565b600282016000610d759190611b86565b600382016000610d859190611b86565b505060008090505b600680549050811015610eec578173ffffffffffffffffffffffffffffffffffffffff1660068281548110610dbe57fe5b9060005260206000200160009054906101000a900473ffffffffffffffffffffffffffffffffffffffff1673ffffffffffffffffffffffffffffffffffffffff161415610edf57600660016006805490500381548110610e1a57fe5b9060005260206000200160009054906101000a900473ffffffffffffffffffffffffffffffffffffffff1660068281548110610e5257fe5b9060005260206000200160006101000a81548173ffffffffffffffffffffffffffffffffffffffff021916908373ffffffffffffffffffffffffffffffffffffffff1602179055506006805480610ea557fe5b6001900381819060005260206000200160006101000a81549073ffffffffffffffffffffffffffffffffffffffff02191690559055610eec565b8080600101915050610d8d565b5050565b610ef8611265565b610f0157600080fd5b600073ffffffffffffffffffffffffffffffffffffffff166000809054906101000a900473ffffffffffffffffffffffffffffffffffffffff1673ffffffffffffffffffffffffffffffffffffffff167f5c486528ec3e3f0ea91181cff8116f02bfa350e03b8b6f12e00765adbb5af85c60405160405180910390a360008060006101000a81548173ffffffffffffffffffffffffffffffffffffffff021916908373ffffffffffffffffffffffffffffffffffffffff160217905550565b6060600386604051610fd29190612934565b908152602001604051809103902060020185604051610ff19190612934565b908152602001604051809103902080548060200260200160405190810160405280929190818152602001828054801561104957602002820191906000526020600020905b815481526020019060010190808311611035575b505050505090506000815111611094576040517f08c379a000000000000000000000000000000000000000000000000000000000815260040161108b90612aba565b60405180910390fd5b6004600083815260200190815260200160002060009054906101000a900460ff16156110f5576040517f08c379a00000000000000000000000000000000000000000000000000000000081526004016110ec90612a9a565b60405180910390fd5b600080905060008090505b825181101561113a578383828151811061111657fe5b6020026020010151141561112d576001915061113a565b8080600101915050611100565b508061117b576040517f08c379a000000000000000000000000000000000000000000000000000000000815260040161117290612ada565b60405180910390fd5b60016004600085815260200190815260200160002060006101000a81548160ff0219169083151502179055506003876040516111b79190612934565b9081526020016040518091039020600301866040516111d69190612934565b90815260200160405180910390206040518060400160405280878152602001868152509080600181540180825580915050906001820390600052602060002090600602016000909192909190915060008201518160000190600561123b929190611bce565b506020820151816005019080519060200190611258929190611c21565b5050505050505050505050565b60008060009054906101000a900473ffffffffffffffffffffffffffffffffffffffff1673ffffffffffffffffffffffffffffffffffffffff163373ffffffffffffffffffffffffffffffffffffffff1614905090565b6112c4611265565b6112cd57600080fd5b826003846040516112de9190612934565b90815260200160405180910390206000019080519060200190611302929190611ca1565b50816003846040516113149190612934565b90815260200160405180910390206001019080519060200190611338929190611d21565b5060008090505b825181101561149e57606082828151811061135657fe5b602002602001015160405190808252806020026020018201604052801561138c5781602001602082028038833980820191505090505b50905060008090505b8383815181106113a157fe5b602002602001015181101561142a576000620186a033888887815181106113c457fe5b6020026020010151856040516020016113e094939291906128d7565b6040516020818303038152906040528051906020012060001c8161140057fe5b0690508083838151811061141057fe5b602002602001018181525050508080600101915050611395565b508060038660405161143c9190612934565b908152602001604051809103902060020185848151811061145957fe5b602002602001015160405161146e919061291d565b9081526020016040518091039020908051906020019061148f929190611d81565b5050808060010191505061133f565b50505050565b6060600115156114b2611265565b151514806114cc5750600115156114c83361168f565b1515145b15611560576003836040516114e19190612934565b9081526020016040518091039020600201826040516115009190612934565b908152602001604051809103902080548060200260200160405190810160405280929190818152602001828054801561155857602002820191906000526020600020905b815481526020019060010190808311611544575b505050505090505b92915050565b61156f8161184b565b50565b60405180608001604052808573ffffffffffffffffffffffffffffffffffffffff16815260200184815260200183815260200182815250600260008673ffffffffffffffffffffffffffffffffffffffff1673ffffffffffffffffffffffffffffffffffffffff16815260200190815260200160002060008201518160000160006101000a81548173ffffffffffffffffffffffffffffffffffffffff021916908373ffffffffffffffffffffffffffffffffffffffff160217905550602082015181600101908051906020019061164b929190611c21565b506040820151816002019080519060200190611668929190611c21565b506060820151816003019080519060200190611685929190611c21565b5090505050505050565b60006116a58260016118a590919063ffffffff16565b9050919050565b600681815481106116b957fe5b906000526020600020016000915054906101000a900473ffffffffffffffffffffffffffffffffffffffff1681565b60008060009054906101000a900473ffffffffffffffffffffffffffffffffffffffff16905090565b6005818154811061171e57fe5b9060005260206000209060060201600091509050806005018054600181600116156101000203166002900480601f0160208091040260200160405190810160405280929190818152602001828054600181600116156101000203166002900480156117ca5780601f1061179f576101008083540402835291602001916117ca565b820191906000526020600020905b8154815290600101906020018083116117ad57829003601f168201915b5050505050905081565b6117dc611265565b6117e557600080fd5b6117ee81611937565b50565b611805816001611a2f90919063ffffffff16565b8073ffffffffffffffffffffffffffffffffffffffff167f04e1c63d2b2fafca3496ea9c3f23b77835b9a91f5d74802ced76b7f929b3265e60405160405180910390a250565b61185f816001611adb90919063ffffffff16565b8073ffffffffffffffffffffffffffffffffffffffff167f024a5dd50126818a1d488f90df37ad02592196a4ea744aff479981813929773460405160405180910390a250565b60008073ffffffffffffffffffffffffffffffffffffffff168273ffffffffffffffffffffffffffffffffffffffff1614156118e057600080fd5b8260000160008373ffffffffffffffffffffffffffffffffffffffff1673ffffffffffffffffffffffffffffffffffffffff16815260200190815260200160002060009054906101000a900460ff16905092915050565b600073ffffffffffffffffffffffffffffffffffffffff168173ffffffffffffffffffffffffffffffffffffffff16141561197157600080fd5b8073ffffffffffffffffffffffffffffffffffffffff166000809054906101000a900473ffffffffffffffffffffffffffffffffffffffff1673ffffffffffffffffffffffffffffffffffffffff167f5c486528ec3e3f0ea91181cff8116f02bfa350e03b8b6f12e00765adbb5af85c60405160405180910390a3806000806101000a81548173ffffffffffffffffffffffffffffffffffffffff021916908373ffffffffffffffffffffffffffffffffffffffff16021790555050565b600073ffffffffffffffffffffffffffffffffffffffff168173ffffffffffffffffffffffffffffffffffffffff161415611a6957600080fd5b611a7382826118a5565b15611a7d57600080fd5b60018260000160008373ffffffffffffffffffffffffffffffffffffffff1673ffffffffffffffffffffffffffffffffffffffff16815260200190815260200160002060006101000a81548160ff0219169083151502179055505050565b600073ffffffffffffffffffffffffffffffffffffffff168173ffffffffffffffffffffffffffffffffffffffff161415611b1557600080fd5b611b1f82826118a5565b611b2857600080fd5b60008260000160008373ffffffffffffffffffffffffffffffffffffffff1673ffffffffffffffffffffffffffffffffffffffff16815260200190815260200160002060006101000a81548160ff0219169083151502179055505050565b50805460018160011615610100020316600290046000825580601f10611bac5750611bcb565b601f016020900490600052602060002090810190611bca9190611dce565b5b50565b8260058101928215611c10579160200282015b82811115611c0f578251829080519060200190611bff929190611c21565b5091602001919060010190611be1565b5b509050611c1d9190611df3565b5090565b828054600181600116156101000203166002900490600052602060002090601f016020900481019282601f10611c6257805160ff1916838001178555611c90565b82800160010185558215611c90579182015b82811115611c8f578251825591602001919060010190611c74565b5b509050611c9d9190611dce565b5090565b828054600181600116156101000203166002900490600052602060002090601f016020900481019282601f10611ce257805160ff1916838001178555611d10565b82800160010185558215611d10579182015b82811115611d0f578251825591602001919060010190611cf4565b5b509050611d1d9190611dce565b5090565b828054828255906000526020600020908101928215611d70579160200282015b82811115611d6f578251829080519060200190611d5f929190611c21565b5091602001919060010190611d41565b5b509050611d7d9190611df3565b5090565b828054828255906000526020600020908101928215611dbd579160200282015b82811115611dbc578251825591602001919060010190611da1565b5b509050611dca9190611dce565b5090565b611df091905b80821115611dec576000816000905550600101611dd4565b5090565b90565b611e1c91905b80821115611e185760008181611e0f9190611b86565b50600101611df9565b5090565b90565b600081359050611e2e81612e2d565b92915050565b600082601f830112611e4557600080fd5b6005611e58611e5382612b27565b612afa565b9150818360005b83811015611e8f5781358601611e758882611f90565b845260208401935060208301925050600181019050611e5f565b5050505092915050565b600082601f830112611eaa57600080fd5b8135611ebd611eb882612b49565b612afa565b9150818183526020840193506020810190508360005b83811015611f035781358601611ee98882611f90565b845260208401935060208301925050600181019050611ed3565b5050505092915050565b600082601f830112611f1e57600080fd5b8135611f31611f2c82612b71565b612afa565b91508181835260208401935060208101905083856020840282011115611f5657600080fd5b60005b83811015611f865781611f6c8882612038565b845260208401935060208301925050600181019050611f59565b5050505092915050565b600082601f830112611fa157600080fd5b8135611fb4611faf82612b99565b612afa565b91508082526020830160208301858383011115611fd057600080fd5b611fdb838284612d9f565b50505092915050565b600082601f830112611ff557600080fd5b813561200861200382612bc5565b612afa565b9150808252602083016020830185838301111561202457600080fd5b61202f838284612d9f565b50505092915050565b60008135905061204781612e44565b92915050565b60006020828403121561205f57600080fd5b600061206d84828501611e1f565b91505092915050565b6000806000806080858703121561208c57600080fd5b600061209a87828801611e1f565b945050602085013567ffffffffffffffff8111156120b757600080fd5b6120c387828801611fe4565b935050604085013567ffffffffffffffff8111156120e057600080fd5b6120ec87828801611fe4565b925050606085013567ffffffffffffffff81111561210957600080fd5b61211587828801611fe4565b91505092959194509250565b60006020828403121561213357600080fd5b600082013567ffffffffffffffff81111561214d57600080fd5b61215984828501611fe4565b91505092915050565b60008060006060848603121561217757600080fd5b600084013567ffffffffffffffff81111561219157600080fd5b61219d86828701611fe4565b935050602084013567ffffffffffffffff8111156121ba57600080fd5b6121c686828701611e99565b925050604084013567ffffffffffffffff8111156121e357600080fd5b6121ef86828701611f0d565b9150509250925092565b6000806040838503121561220c57600080fd5b600083013567ffffffffffffffff81111561222657600080fd5b61223285828601611fe4565b925050602083013567ffffffffffffffff81111561224f57600080fd5b61225b85828601611fe4565b9150509250929050565b600080600080600060a0868803121561227d57600080fd5b600086013567ffffffffffffffff81111561229757600080fd5b6122a388828901611fe4565b955050602086013567ffffffffffffffff8111156122c057600080fd5b6122cc88828901611fe4565b945050604086013567ffffffffffffffff8111156122e957600080fd5b6122f588828901611e34565b935050606086013567ffffffffffffffff81111561231257600080fd5b61231e88828901611fe4565b925050608061232f88828901612038565b9150509295509295909350565b60006020828403121561234e57600080fd5b600061235c84828501612038565b91505092915050565b60006123718383612699565b905092915050565b600061238583836127fc565b905092915050565b60006123998383612840565b905092915050565b60006123ad83836128b1565b60208301905092915050565b6123ca6123c582612d57565b612de1565b82525050565b6123d981612d45565b82525050565b6123e881612d45565b82525050565b60006123f982612c3b565b6124038185612cc9565b93508360208202850161241585612bf1565b8060005b8581101561245157848403895281516124328582612365565b945061243d83612c88565b925060208a01995050600181019050612419565b50829750879550505050505092915050565b600061246e82612c46565b6124788185612cd4565b93508360208202850161248a85612bfb565b8060005b858110156124c657848403895281516124a78582612365565b94506124b283612c95565b925060208a0199505060018101905061248e565b50829750879550505050505092915050565b60006124e382612c51565b6124ed8185612ce5565b9350836020820285016124ff85612c0b565b8060005b8581101561253b578484038952815161251c8582612379565b945061252783612ca2565b925060208a01995050600181019050612503565b50829750879550505050505092915050565b600061255882612c5c565b6125628185612cf6565b93508360208202850161257485612c1b565b8060005b858110156125b05784840389528151612591858261238d565b945061259c83612caf565b925060208a01995050600181019050612578565b50829750879550505050505092915050565b60006125cd82612c67565b6125d78185612d07565b93506125e283612c2b565b8060005b838110156126135781516125fa88826123a1565b975061260583612cbc565b9250506001810190506125e6565b5085935050505092915050565b61262981612d69565b82525050565b600061263a82612c7d565b6126448185612d29565b9350612654818560208601612dae565b61265d81612e0f565b840191505092915050565b600061267382612c7d565b61267d8185612d3a565b935061268d818560208601612dae565b80840191505092915050565b60006126a482612c72565b6126ae8185612d18565b93506126be818560208601612dae565b6126c781612e0f565b840191505092915050565b60006126dd82612c72565b6126e78185612d29565b93506126f7818560208601612dae565b61270081612e0f565b840191505092915050565b600061271682612c72565b6127208185612d3a565b9350612730818560208601612dae565b80840191505092915050565b6000612749601e83612d29565b91507f50617373776f72642068617320616c7265616479206265656e207573656400006000830152602082019050919050565b6000612789601f83612d29565b91507f496e76616c69642074656163686572206f72207375626a65637420636f6465006000830152602082019050919050565b60006127c9601083612d29565b91507f496e76616c69642070617373776f7264000000000000000000000000000000006000830152602082019050919050565b6000604083016000830151848203600086015261281982826123ee565b915050602083015184820360208601526128338282612699565b9150508091505092915050565b600060808301600083015161285860008601826123d0565b50602083015184820360208601526128708282612699565b9150506040830151848203604086015261288a8282612699565b915050606083015184820360608601526128a48282612699565b9150508091505092915050565b6128ba81612d95565b82525050565b6128d16128cc82612d95565b612e05565b82525050565b60006128e382876123b9565b6014820191506128f38286612668565b91506128ff828561270b565b915061290b82846128c0565b60208201915081905095945050505050565b6000612929828461270b565b915081905092915050565b60006129408284612668565b915081905092915050565b600060208201905061296060008301846123df565b92915050565b600060808201905061297b60008301876123df565b818103602083015261298d81866126d2565b905081810360408301526129a181856126d2565b905081810360608301526129b581846126d2565b905095945050505050565b600060208201905081810360008301526129da81846124d8565b905092915050565b600060208201905081810360008301526129fc818461254d565b905092915050565b60006020820190508181036000830152612a1e81846125c2565b905092915050565b6000602082019050612a3b6000830184612620565b92915050565b60006020820190508181036000830152612a5b81846126d2565b905092915050565b60006040820190508181036000830152612a7d818561262f565b90508181036020830152612a918184612463565b90509392505050565b60006020820190508181036000830152612ab38161273c565b9050919050565b60006020820190508181036000830152612ad38161277c565b9050919050565b60006020820190508181036000830152612af3816127bc565b9050919050565b6000604051905081810181811067ffffffffffffffff82111715612b1d57600080fd5b8060405250919050565b600067ffffffffffffffff821115612b3e57600080fd5b602082029050919050565b600067ffffffffffffffff821115612b6057600080fd5b602082029050602081019050919050565b600067ffffffffffffffff821115612b8857600080fd5b602082029050602081019050919050565b600067ffffffffffffffff821115612bb057600080fd5b601f19601f8301169050602081019050919050565b600067ffffffffffffffff821115612bdc57600080fd5b601f19601f8301169050602081019050919050565b6000819050919050565b6000819050602082019050919050565b6000819050602082019050919050565b6000819050602082019050919050565b6000819050602082019050919050565b600060059050919050565b600081519050919050565b600081519050919050565b600081519050919050565b600081519050919050565b600081519050919050565b600081519050919050565b6000602082019050919050565b6000602082019050919050565b6000602082019050919050565b6000602082019050919050565b6000602082019050919050565b600081905092915050565b600082825260208201905092915050565b600082825260208201905092915050565b600082825260208201905092915050565b600082825260208201905092915050565b600082825260208201905092915050565b600082825260208201905092915050565b600081905092915050565b6000612d5082612d75565b9050919050565b6000612d6282612d75565b9050919050565b60008115159050919050565b600073ffffffffffffffffffffffffffffffffffffffff82169050919050565b6000819050919050565b82818337600083830152505050565b60005b83811015612dcc578082015181840152602081019050612db1565b83811115612ddb576000848401525b50505050565b6000612dec82612df3565b9050919050565b6000612dfe82612e20565b9050919050565b6000819050919050565b6000601f19601f8301169050919050565b60008160601b9050919050565b612e3681612d45565b8114612e4157600080fd5b50565b612e4d81612d95565b8114612e5857600080fd5b5056fea365627a7a72315820c31ae7d07f9ada9446fac63852e2f63c95e00e9e206f0b71ae6b1e12ba2fe3be6c6578706572696d656e74616cf564736f6c63430005100040",
  "source": "// SPDX-License-Identifier: GPL-3.0\r\npragma solidity >=0.4.24;\r\npragma experimental ABIEncoderV2;\r\n// inherited contracts\r\nimport \"./Ownable.sol\";\r\nimport \"./TeacherRole.sol\";\r\n\r\ncontract AcadChainContract is Ownable, TeacherRole {\r\n    struct TeacherData {\r\n        string code;\r\n        string[] subjectCodes;\r\n        mapping(string => uint[]) passwordMap;\r\n        mapping(string => Review[]) reviewMap;\r\n    }\r\n\r\n    struct Review {\r\n        string[5] ratings;\r\n        string comments;\r\n    }\r\n\r\n    struct TeacherRegistrationData {\r\n        address userAddress;\r\n        string teacherCode;\r\n        string subjectCodes;\r\n        string studentCounts;\r\n    }\r\n\r\n    mapping(address => TeacherRegistrationData) public teacherRegistrationData;\r\n    mapping(string => TeacherData) teachers;\r\n    mapping(uint => bool) usedPasswords;\r\n\r\n    Review[] public reviews;\r\n    address[] public teacherRegistrationKeys;\r\n\r\n    modifier checkEitherOwnerOrTeacher() {\r\n        if ((isOwner() == true) || (isTeacher(msg.sender) == true)) {\r\n            _;\r\n        }\r\n    }\r\n\r\n    function storeTeacherRegistrationData(\r\n        address _userAddress,\r\n        string memory _teacherCode,\r\n        string memory _subjectCodes,\r\n        string memory _studentCounts\r\n    ) public {\r\n        teacherRegistrationData[_userAddress] = TeacherRegistrationData({\r\n            userAddress: _userAddress,\r\n            teacherCode: _teacherCode,\r\n            subjectCodes: _subjectCodes,\r\n            studentCounts: _studentCounts\r\n        });\r\n    }\r\n\r\n    function getTeacherRegistrationData()\r\n        public\r\n        view\r\n        returns (TeacherRegistrationData[] memory)\r\n    {\r\n        TeacherRegistrationData[] memory data;\r\n\r\n        for (uint i = 0; i < teacherRegistrationKeys.length; i++) {\r\n            TeacherRegistrationData storage trd = teacherRegistrationData[\r\n                teacherRegistrationKeys[i]\r\n            ];\r\n            data[i] = TeacherRegistrationData({\r\n                userAddress: trd.userAddress,\r\n                teacherCode: trd.teacherCode,\r\n                subjectCodes: trd.subjectCodes,\r\n                studentCounts: trd.studentCounts\r\n            });\r\n        }\r\n\r\n        return data;\r\n    }\r\n\r\n    function deleteTeacherRegistrationData(\r\n        address _userAddress\r\n    ) public onlyOwner {\r\n        delete teacherRegistrationData[_userAddress];\r\n\r\n        for (uint i = 0; i < teacherRegistrationKeys.length; i++) {\r\n            if (teacherRegistrationKeys[i] == _userAddress) {\r\n                teacherRegistrationKeys[i] = teacherRegistrationKeys[\r\n                    teacherRegistrationKeys.length - 1\r\n                ];\r\n                teacherRegistrationKeys.pop();\r\n                break;\r\n            }\r\n        }\r\n    }\r\n\r\n    function addTeacher(\r\n        string memory _teacherCode,\r\n        string[] memory _subjectCodes,\r\n        uint[] memory _studentCount\r\n    ) public onlyOwner {\r\n        teachers[_teacherCode].code = _teacherCode;\r\n        teachers[_teacherCode].subjectCodes = _subjectCodes;\r\n\r\n        for (uint i = 0; i < _subjectCodes.length; i++) {\r\n            uint[] memory passwords = new uint[](_studentCount[i]);\r\n            for (uint j = 0; j < _studentCount[i]; j++) {\r\n                uint password = uint(\r\n                    keccak256(\r\n                        abi.encodePacked(\r\n                            msg.sender,\r\n                            _teacherCode,\r\n                            _subjectCodes[i],\r\n                            j\r\n                        )\r\n                    )\r\n                ) % 100000;\r\n                passwords[j] = password;\r\n            }\r\n            teachers[_teacherCode].passwordMap[_subjectCodes[i]] = passwords;\r\n        }\r\n    }\r\n\r\n    function getTeacher(\r\n        string memory _teacherCode\r\n    )\r\n        public\r\n        view\r\n        checkEitherOwnerOrTeacher\r\n        returns (string memory code, string[] memory subjectCodes)\r\n    {\r\n        TeacherData storage teacher = teachers[_teacherCode];\r\n        return (teacher.code, teacher.subjectCodes);\r\n    }\r\n\r\n    function getPasswords(\r\n        string memory _teacherCode,\r\n        string memory _subjectCode\r\n    ) public view checkEitherOwnerOrTeacher returns (uint[] memory passwords) {\r\n        return teachers[_teacherCode].passwordMap[_subjectCode];\r\n    }\r\n\r\n    function getReview(\r\n        string memory _teacherCode,\r\n        string memory _subjectCode\r\n    ) public view checkEitherOwnerOrTeacher returns (Review[] memory) {\r\n        return (teachers[_teacherCode].reviewMap[_subjectCode]);\r\n    }\r\n\r\n    function addReview(\r\n        string memory _teacherCode,\r\n        string memory _subjectCode,\r\n        string[5] memory _ratings,\r\n        string memory _comments,\r\n        uint _password\r\n    ) public {\r\n        uint[] memory passwords = teachers[_teacherCode].passwordMap[\r\n            _subjectCode\r\n        ];\r\n        require(passwords.length > 0, \"Invalid teacher or subject code\");\r\n        require(!usedPasswords[_password], \"Password has already been used\");\r\n        bool passwordMatch = false;\r\n        for (uint i = 0; i < passwords.length; i++) {\r\n            if (passwords[i] == _password) {\r\n                passwordMatch = true;\r\n                break;\r\n            }\r\n        }\r\n        require(passwordMatch, \"Invalid password\");\r\n        usedPasswords[_password] = true;\r\n        teachers[_teacherCode].reviewMap[_subjectCode].push(\r\n            Review(_ratings, _comments)\r\n        );\r\n    }\r\n}\r\n",
  "sourcePath": "C:\\Users\\pragy\\Desktop\\Workspaces\\Projects\\AcadChainDapp\\AcadChain\\AcadChainBlockchain\\contracts\\AcadChainContract.sol",
  "compiler": {
    "name": "solc",
    "version": "0.5.16+commit.9c3226ce.Emscripten.clang"
  },
  "schemaVersion": "3.4.14",
  "updatedAt": "2023-12-07T12:57:08.448Z",
  "devdoc": {
    "methods": {}
  },
  "userdoc": {
    "methods": {
      "isOwner()": {
        "notice": "Check if the calling address is the owner of the contract"
      },
      "ownerLookup()": {
        "notice": "Look up the address of the owner"
      },
      "renounceOwnership()": {
        "notice": "Define a function to renounce ownerhip"
      },
      "transferOwnership(address)": {
        "notice": "Define a public function to transfer ownership"
      }
    }
  }
}