{
  "contractName": "TeacherRole",
  "abi": [
    {
      "inputs": [],
      "stateMutability": "nonpayable",
      "type": "constructor"
    },
    {
      "anonymous": false,
      "inputs": [
        {
          "indexed": true,
          "internalType": "address",
          "name": "account",
          "type": "address"
        }
      ],
      "name": "TeacherAdded",
      "type": "event"
    },
    {
      "anonymous": false,
      "inputs": [
        {
          "indexed": true,
          "internalType": "address",
          "name": "account",
          "type": "address"
        }
      ],
      "name": "TeacherRemoved",
      "type": "event"
    },
    {
      "inputs": [
        {
          "internalType": "address",
          "name": "account",
          "type": "address"
        }
      ],
      "name": "isTeacher",
      "outputs": [
        {
          "internalType": "bool",
          "name": "",
          "type": "bool"
        }
      ],
      "stateMutability": "view",
      "type": "function"
    },
    {
      "inputs": [
        {
          "internalType": "address",
          "name": "account",
          "type": "address"
        }
      ],
      "name": "addTeacher",
      "outputs": [],
      "stateMutability": "nonpayable",
      "type": "function"
    },
    {
      "inputs": [
        {
          "internalType": "address",
          "name": "account",
          "type": "address"
        }
      ],
      "name": "renounceTeacher",
      "outputs": [],
      "stateMutability": "nonpayable",
      "type": "function"
    }
  ],
  "bytecode": "0x608060405234801561001057600080fd5b506100203361002560201b60201c565b6101c7565b61003d81600061008360201b6100f51790919060201c565b8073ffffffffffffffffffffffffffffffffffffffff167f04e1c63d2b2fafca3496ea9c3f23b77835b9a91f5d74802ced76b7f929b3265e60405160405180910390a250565b600073ffffffffffffffffffffffffffffffffffffffff168173ffffffffffffffffffffffffffffffffffffffff1614156100bd57600080fd5b6100cd828261013560201b60201c565b156100d757600080fd5b60018260000160008373ffffffffffffffffffffffffffffffffffffffff1673ffffffffffffffffffffffffffffffffffffffff16815260200190815260200160002060006101000a81548160ff0219169083151502179055505050565b60008073ffffffffffffffffffffffffffffffffffffffff168273ffffffffffffffffffffffffffffffffffffffff16141561017057600080fd5b8260000160008373ffffffffffffffffffffffffffffffffffffffff1673ffffffffffffffffffffffffffffffffffffffff16815260200190815260200160002060009054906101000a900460ff16905092915050565b61048e806101d66000396000f3fe608060405234801561001057600080fd5b50600436106100415760003560e01c80633bc6e30914610046578063a0f2de2014610062578063aec37eb31461007e575b600080fd5b610060600480360381019061005b91906103f5565b6100ae565b005b61007c600480360381019061007791906103f5565b6100cc565b005b610098600480360381019061009391906103f5565b6100d8565b6040516100a5919061043d565b60405180910390f35b6100b7336100d8565b6100c057600080fd5b6100c9816101a1565b50565b6100d5816101fb565b50565b60006100ee82600061025590919063ffffffff16565b9050919050565b600073ffffffffffffffffffffffffffffffffffffffff168173ffffffffffffffffffffffffffffffffffffffff16141561012f57600080fd5b6101398282610255565b1561014357600080fd5b60018260000160008373ffffffffffffffffffffffffffffffffffffffff1673ffffffffffffffffffffffffffffffffffffffff16815260200190815260200160002060006101000a81548160ff0219169083151502179055505050565b6101b58160006100f590919063ffffffff16565b8073ffffffffffffffffffffffffffffffffffffffff167f04e1c63d2b2fafca3496ea9c3f23b77835b9a91f5d74802ced76b7f929b3265e60405160405180910390a250565b61020f8160006102e790919063ffffffff16565b8073ffffffffffffffffffffffffffffffffffffffff167f024a5dd50126818a1d488f90df37ad02592196a4ea744aff479981813929773460405160405180910390a250565b60008073ffffffffffffffffffffffffffffffffffffffff168273ffffffffffffffffffffffffffffffffffffffff16141561029057600080fd5b8260000160008373ffffffffffffffffffffffffffffffffffffffff1673ffffffffffffffffffffffffffffffffffffffff16815260200190815260200160002060009054906101000a900460ff16905092915050565b600073ffffffffffffffffffffffffffffffffffffffff168173ffffffffffffffffffffffffffffffffffffffff16141561032157600080fd5b61032b8282610255565b61033457600080fd5b60008260000160008373ffffffffffffffffffffffffffffffffffffffff1673ffffffffffffffffffffffffffffffffffffffff16815260200190815260200160002060006101000a81548160ff0219169083151502179055505050565b600080fd5b600073ffffffffffffffffffffffffffffffffffffffff82169050919050565b60006103c282610397565b9050919050565b6103d2816103b7565b81146103dd57600080fd5b50565b6000813590506103ef816103c9565b92915050565b60006020828403121561040b5761040a610392565b5b6000610419848285016103e0565b91505092915050565b60008115159050919050565b61043781610422565b82525050565b6000602082019050610452600083018461042e565b9291505056fea2646970667358221220427acf702d534bf52d5b92238784c1df0170cd531f4cef9899764f322614c26764736f6c634300080b0033",
  "immutableReferences": {},
  "source": "// SPDX-License-Identifier: GPL-3.0\r\npragma solidity >=0.8.2 <0.9.0;\r\n\r\n// Import the library 'Roles'\r\nimport \"./Roles.sol\";\r\n\r\n// Define a contract 'TeacherRole' to manage this role - add, remove, check\r\ncontract TeacherRole {\r\n  using Roles for Roles.Role;\r\n  // Define 2 events, one for Adding, and other for Removing\r\n  event TeacherAdded(address indexed account);\r\n  event TeacherRemoved(address indexed account);\r\n\r\n  // Define a struct 'Teachers' by inheriting from 'Roles' library, struct Role\r\n  Roles.Role private Teachers;\r\n  // In the constructor make the address that deploys this contract the 1st Teacher\r\n  constructor() {\r\n    //_addConstructor(msg.sender);\r\n    _addTeacher(msg.sender);\r\n  }\r\n\r\n  // Define a modifier that checks to see if msg.sender has the appropriate role\r\n  modifier onlyTeacher() {\r\n    require(isTeacher(msg.sender));\r\n    _;\r\n  }\r\n\r\n  // Define a function 'isTeacher' to check this role\r\n  function isTeacher(address account) public view returns (bool) {\r\n    return Teachers.has(account);\r\n  }\r\n\r\n  // Define a function 'addTeacher' that adds this role\r\n  function addTeacher(address account) public onlyTeacher {\r\n    _addTeacher(account);\r\n  }\r\n\r\n  // Define a function 'renounceTeacher' to renounce this role\r\n  function renounceTeacher(address account) public {\r\n    _removeTeacher(account);\r\n  }\r\n\r\n  // Define an internal function '_addTeacher' to add this role, called by 'addTeacher'\r\n  function _addTeacher(address account) internal {\r\n    Teachers.add(account);\r\n    emit TeacherAdded(account);\r\n  }\r\n\r\n  // Define an internal function '_removeTeacher' to remove this role, called by 'removeTeacher'\r\n  function _removeTeacher(address account) internal {\r\n    Teachers.remove(account);\r\n    emit TeacherRemoved(account);\r\n  }\r\n}",
  "sourcePath": "C:\\Users\\pragy\\Desktop\\Workspaces\\Projects\\AcadChainDapp\\AcadChain\\AcadChainBlockchain\\contracts\\TeacherRole.sol",
  "compiler": {
    "name": "solc",
    "version": "0.8.11+commit.d7f03943.Emscripten.clang"
  },
  "schemaVersion": "3.4.14",
  "updatedAt": "2024-01-12T21:14:31.751Z",
  "devdoc": {
    "kind": "dev",
    "methods": {},
    "version": 1
  },
  "userdoc": {
    "kind": "user",
    "methods": {},
    "version": 1
  }
}