{
  "contractName": "AcadChainContract",
  "abi": [
    {
      "anonymous": false,
      "inputs": [
        {
          "indexed": true,
          "internalType": "address",
          "name": "account",
          "type": "address"
        }
      ],
      "name": "TeacherAdded",
      "type": "event"
    },
    {
      "anonymous": false,
      "inputs": [
        {
          "indexed": true,
          "internalType": "address",
          "name": "account",
          "type": "address"
        }
      ],
      "name": "TeacherRemoved",
      "type": "event"
    },
    {
      "anonymous": false,
      "inputs": [
        {
          "indexed": true,
          "internalType": "address",
          "name": "oldOwner",
          "type": "address"
        },
        {
          "indexed": true,
          "internalType": "address",
          "name": "newOwner",
          "type": "address"
        }
      ],
      "name": "TransferOwnership",
      "type": "event"
    },
    {
      "constant": true,
      "inputs": [],
      "name": "isOwner",
      "outputs": [
        {
          "internalType": "bool",
          "name": "",
          "type": "bool"
        }
      ],
      "payable": false,
      "stateMutability": "view",
      "type": "function"
    },
    {
      "constant": true,
      "inputs": [
        {
          "internalType": "address",
          "name": "account",
          "type": "address"
        }
      ],
      "name": "isTeacher",
      "outputs": [
        {
          "internalType": "bool",
          "name": "",
          "type": "bool"
        }
      ],
      "payable": false,
      "stateMutability": "view",
      "type": "function"
    },
    {
      "constant": true,
      "inputs": [],
      "name": "ownerLookup",
      "outputs": [
        {
          "internalType": "address",
          "name": "",
          "type": "address"
        }
      ],
      "payable": false,
      "stateMutability": "view",
      "type": "function"
    },
    {
      "constant": false,
      "inputs": [],
      "name": "renounceOwnership",
      "outputs": [],
      "payable": false,
      "stateMutability": "nonpayable",
      "type": "function"
    },
    {
      "constant": false,
      "inputs": [
        {
          "internalType": "address",
          "name": "account",
          "type": "address"
        }
      ],
      "name": "renounceTeacher",
      "outputs": [],
      "payable": false,
      "stateMutability": "nonpayable",
      "type": "function"
    },
    {
      "constant": true,
      "inputs": [
        {
          "internalType": "uint256",
          "name": "",
          "type": "uint256"
        }
      ],
      "name": "reviews",
      "outputs": [
        {
          "internalType": "uint256",
          "name": "rating",
          "type": "uint256"
        },
        {
          "internalType": "string",
          "name": "comments",
          "type": "string"
        }
      ],
      "payable": false,
      "stateMutability": "view",
      "type": "function"
    },
    {
      "constant": false,
      "inputs": [
        {
          "internalType": "address",
          "name": "newOwner",
          "type": "address"
        }
      ],
      "name": "transferOwnership",
      "outputs": [],
      "payable": false,
      "stateMutability": "nonpayable",
      "type": "function"
    },
    {
      "constant": false,
      "inputs": [
        {
          "internalType": "address",
          "name": "account",
          "type": "address"
        }
      ],
      "name": "addTeacher",
      "outputs": [],
      "payable": false,
      "stateMutability": "nonpayable",
      "type": "function"
    },
    {
      "constant": false,
      "inputs": [
        {
          "internalType": "string",
          "name": "_teacherCode",
          "type": "string"
        },
        {
          "internalType": "string[]",
          "name": "_subjectCodes",
          "type": "string[]"
        },
        {
          "internalType": "uint256[]",
          "name": "_studentCount",
          "type": "uint256[]"
        }
      ],
      "name": "addTeacher",
      "outputs": [],
      "payable": false,
      "stateMutability": "nonpayable",
      "type": "function"
    },
    {
      "constant": true,
      "inputs": [
        {
          "internalType": "string",
          "name": "_teacherCode",
          "type": "string"
        }
      ],
      "name": "getTeacher",
      "outputs": [
        {
          "internalType": "string",
          "name": "code",
          "type": "string"
        },
        {
          "internalType": "string[]",
          "name": "subjectCodes",
          "type": "string[]"
        }
      ],
      "payable": false,
      "stateMutability": "view",
      "type": "function"
    },
    {
      "constant": true,
      "inputs": [
        {
          "internalType": "string",
          "name": "_teacherCode",
          "type": "string"
        },
        {
          "internalType": "string",
          "name": "_subjectCode",
          "type": "string"
        }
      ],
      "name": "getPasswords",
      "outputs": [
        {
          "internalType": "uint256[]",
          "name": "passwords",
          "type": "uint256[]"
        }
      ],
      "payable": false,
      "stateMutability": "view",
      "type": "function"
    },
    {
      "constant": true,
      "inputs": [
        {
          "internalType": "string",
          "name": "_teacherCode",
          "type": "string"
        },
        {
          "internalType": "string",
          "name": "_subjectCode",
          "type": "string"
        }
      ],
      "name": "getReview",
      "outputs": [
        {
          "components": [
            {
              "internalType": "uint256",
              "name": "rating",
              "type": "uint256"
            },
            {
              "internalType": "string",
              "name": "comments",
              "type": "string"
            }
          ],
          "internalType": "struct AcadChainContract.Review[]",
          "name": "",
          "type": "tuple[]"
        }
      ],
      "payable": false,
      "stateMutability": "view",
      "type": "function"
    },
    {
      "constant": false,
      "inputs": [
        {
          "internalType": "string",
          "name": "_teacherCode",
          "type": "string"
        },
        {
          "internalType": "string",
          "name": "_subjectCode",
          "type": "string"
        },
        {
          "internalType": "uint256",
          "name": "_rating",
          "type": "uint256"
        },
        {
          "internalType": "string",
          "name": "_comments",
          "type": "string"
        },
        {
          "internalType": "uint256",
          "name": "_password",
          "type": "uint256"
        }
      ],
      "name": "addReview",
      "outputs": [],
      "payable": false,
      "stateMutability": "nonpayable",
      "type": "function"
    }
  ],
  "bytecode": "0x6080604052336000806101000a81548173ffffffffffffffffffffffffffffffffffffffff021916908373ffffffffffffffffffffffffffffffffffffffff1602179055506000809054906101000a900473ffffffffffffffffffffffffffffffffffffffff1673ffffffffffffffffffffffffffffffffffffffff16600073ffffffffffffffffffffffffffffffffffffffff167f5c486528ec3e3f0ea91181cff8116f02bfa350e03b8b6f12e00765adbb5af85c60405160405180910390a3620000d133620000d760201b60201c565b62000281565b620000f28160016200013860201b62000feb1790919060201c565b8073ffffffffffffffffffffffffffffffffffffffff167f04e1c63d2b2fafca3496ea9c3f23b77835b9a91f5d74802ced76b7f929b3265e60405160405180910390a250565b600073ffffffffffffffffffffffffffffffffffffffff168173ffffffffffffffffffffffffffffffffffffffff1614156200017357600080fd5b620001858282620001ee60201b60201c565b156200019057600080fd5b60018260000160008373ffffffffffffffffffffffffffffffffffffffff1673ffffffffffffffffffffffffffffffffffffffff16815260200190815260200160002060006101000a81548160ff0219169083151502179055505050565b60008073ffffffffffffffffffffffffffffffffffffffff168273ffffffffffffffffffffffffffffffffffffffff1614156200022a57600080fd5b8260000160008373ffffffffffffffffffffffffffffffffffffffff1673ffffffffffffffffffffffffffffffffffffffff16815260200190815260200160002060009054906101000a900460ff16905092915050565b61207380620002916000396000f3fe608060405234801561001057600080fd5b50600436106100cf5760003560e01c806395a6ee3e1161008c578063aec37eb311610066578063aec37eb3146101fd578063e02e64ea1461022d578063e83ddcea1461024b578063f2fde38b1461027c576100cf565b806395a6ee3e146101955780639a3e36e4146101b1578063a0f2de20146101e1576100cf565b8063045f94e3146100d457806321128167146101045780633bc6e30914610135578063715018a6146101515780638f32d59b1461015b5780639491eb3714610179575b600080fd5b6100ee60048036036100e99190810190611652565b610298565b6040516100fb9190611c31565b60405180910390f35b61011e6004803603610119919081019061157a565b61040d565b60405161012c929190611c90565b60405180910390f35b61014f600480360361014a9190810190611551565b6105ef565b005b61015961060d565b005b6101636106dd565b6040516101709190611c75565b60405180910390f35b610193600480360361018e91908101906116be565b610734565b005b6101af60048036036101aa91908101906115bb565b6109cb565b005b6101cb60048036036101c69190810190611652565b610bb3565b6040516101d89190611c53565b60405180910390f35b6101fb60048036036101f69190810190611551565b610c75565b005b61021760048036036102129190810190611551565b610c81565b6040516102249190611c75565b60405180910390f35b610235610c9e565b6040516102429190611c16565b60405180910390f35b6102656004803603610260919081019061177d565b610cc7565b604051610273929190611d27565b60405180910390f35b61029660048036036102919190810190611551565b610d90565b005b6060600115156102a66106dd565b151514806102c05750600115156102bc33610c81565b1515145b15610407576003836040516102d59190611bff565b9081526020016040518091039020600301826040516102f49190611bff565b9081526020016040518091039020805480602002602001604051908101604052809291908181526020016000905b82821015610400578382906000526020600020906002020160405180604001604052908160008201548152602001600182018054600181600116156101000203166002900480601f0160208091040260200160405190810160405280929190818152602001828054600181600116156101000203166002900480156103e85780601f106103bd576101008083540402835291602001916103e8565b820191906000526020600020905b8154815290600101906020018083116103cb57829003601f168201915b50505050508152505081526020019060010190610322565b5050505090505b92915050565b6060806001151561041c6106dd565b1515148061043657506001151561043233610c81565b1515145b156105ea57600060038460405161044d9190611bff565b908152602001604051809103902090508060000181600101818054600181600116156101000203166002900480601f0160208091040260200160405190810160405280929190818152602001828054600181600116156101000203166002900480156104fa5780601f106104cf576101008083540402835291602001916104fa565b820191906000526020600020905b8154815290600101906020018083116104dd57829003601f168201915b5050505050915080805480602002602001604051908101604052809291908181526020016000905b828210156105de578382906000526020600020018054600181600116156101000203166002900480601f0160208091040260200160405190810160405280929190818152602001828054600181600116156101000203166002900480156105ca5780601f1061059f576101008083540402835291602001916105ca565b820191906000526020600020905b8154815290600101906020018083116105ad57829003601f168201915b505050505081526020019060010190610522565b50505050905092509250505b915091565b6105f833610c81565b61060157600080fd5b61060a81610dad565b50565b6106156106dd565b61061e57600080fd5b600073ffffffffffffffffffffffffffffffffffffffff166000809054906101000a900473ffffffffffffffffffffffffffffffffffffffff1673ffffffffffffffffffffffffffffffffffffffff167f5c486528ec3e3f0ea91181cff8116f02bfa350e03b8b6f12e00765adbb5af85c60405160405180910390a360008060006101000a81548173ffffffffffffffffffffffffffffffffffffffff021916908373ffffffffffffffffffffffffffffffffffffffff160217905550565b60008060009054906101000a900473ffffffffffffffffffffffffffffffffffffffff1673ffffffffffffffffffffffffffffffffffffffff163373ffffffffffffffffffffffffffffffffffffffff1614905090565b60606003866040516107469190611bff565b9081526020016040518091039020600201856040516107659190611bff565b90815260200160405180910390208054806020026020016040519081016040528092919081815260200182805480156107bd57602002820191906000526020600020905b8154815260200190600101908083116107a9575b505050505090506000815111610808576040517f08c379a00000000000000000000000000000000000000000000000000000000081526004016107ff90611ce7565b60405180910390fd5b6004600083815260200190815260200160002060009054906101000a900460ff1615610869576040517f08c379a000000000000000000000000000000000000000000000000000000000815260040161086090611cc7565b60405180910390fd5b600080905060008090505b82518110156108ae578383828151811061088a57fe5b602002602001015114156108a157600191506108ae565b8080600101915050610874565b50806108ef576040517f08c379a00000000000000000000000000000000000000000000000000000000081526004016108e690611d07565b60405180910390fd5b60016004600085815260200190815260200160002060006101000a81548160ff02191690831515021790555060038760405161092b9190611bff565b90815260200160405180910390206003018660405161094a9190611bff565b9081526020016040518091039020604051806040016040528087815260200186815250908060018154018082558091505090600182039060005260206000209060020201600090919290919091506000820151816000015560208201518160010190805190602001906109be929190611142565b5050505050505050505050565b6109d36106dd565b6109dc57600080fd5b826003846040516109ed9190611bff565b90815260200160405180910390206000019080519060200190610a119291906111c2565b5081600384604051610a239190611bff565b90815260200160405180910390206001019080519060200190610a47929190611242565b5060008090505b8251811015610bad576060828281518110610a6557fe5b6020026020010151604051908082528060200260200182016040528015610a9b5781602001602082028038833980820191505090505b50905060008090505b838381518110610ab057fe5b6020026020010151811015610b39576000620186a03388888781518110610ad357fe5b602002602001015185604051602001610aef9493929190611ba2565b6040516020818303038152906040528051906020012060001c81610b0f57fe5b06905080838381518110610b1f57fe5b602002602001018181525050508080600101915050610aa4565b5080600386604051610b4b9190611bff565b9081526020016040518091039020600201858481518110610b6857fe5b6020026020010151604051610b7d9190611be8565b90815260200160405180910390209080519060200190610b9e9291906112a2565b50508080600101915050610a4e565b50505050565b606060011515610bc16106dd565b15151480610bdb575060011515610bd733610c81565b1515145b15610c6f57600383604051610bf09190611bff565b908152602001604051809103902060020182604051610c0f9190611bff565b9081526020016040518091039020805480602002602001604051908101604052809291908181526020018280548015610c6757602002820191906000526020600020905b815481526020019060010190808311610c53575b505050505090505b92915050565b610c7e81610e07565b50565b6000610c97826001610e6190919063ffffffff16565b9050919050565b60008060009054906101000a900473ffffffffffffffffffffffffffffffffffffffff16905090565b60028181548110610cd457fe5b9060005260206000209060020201600091509050806000015490806001018054600181600116156101000203166002900480601f016020809104026020016040519081016040528092919081815260200182805460018160011615610100020316600290048015610d865780601f10610d5b57610100808354040283529160200191610d86565b820191906000526020600020905b815481529060010190602001808311610d6957829003601f168201915b5050505050905082565b610d986106dd565b610da157600080fd5b610daa81610ef3565b50565b610dc1816001610feb90919063ffffffff16565b8073ffffffffffffffffffffffffffffffffffffffff167f04e1c63d2b2fafca3496ea9c3f23b77835b9a91f5d74802ced76b7f929b3265e60405160405180910390a250565b610e1b81600161109790919063ffffffff16565b8073ffffffffffffffffffffffffffffffffffffffff167f024a5dd50126818a1d488f90df37ad02592196a4ea744aff479981813929773460405160405180910390a250565b60008073ffffffffffffffffffffffffffffffffffffffff168273ffffffffffffffffffffffffffffffffffffffff161415610e9c57600080fd5b8260000160008373ffffffffffffffffffffffffffffffffffffffff1673ffffffffffffffffffffffffffffffffffffffff16815260200190815260200160002060009054906101000a900460ff16905092915050565b600073ffffffffffffffffffffffffffffffffffffffff168173ffffffffffffffffffffffffffffffffffffffff161415610f2d57600080fd5b8073ffffffffffffffffffffffffffffffffffffffff166000809054906101000a900473ffffffffffffffffffffffffffffffffffffffff1673ffffffffffffffffffffffffffffffffffffffff167f5c486528ec3e3f0ea91181cff8116f02bfa350e03b8b6f12e00765adbb5af85c60405160405180910390a3806000806101000a81548173ffffffffffffffffffffffffffffffffffffffff021916908373ffffffffffffffffffffffffffffffffffffffff16021790555050565b600073ffffffffffffffffffffffffffffffffffffffff168173ffffffffffffffffffffffffffffffffffffffff16141561102557600080fd5b61102f8282610e61565b1561103957600080fd5b60018260000160008373ffffffffffffffffffffffffffffffffffffffff1673ffffffffffffffffffffffffffffffffffffffff16815260200190815260200160002060006101000a81548160ff0219169083151502179055505050565b600073ffffffffffffffffffffffffffffffffffffffff168173ffffffffffffffffffffffffffffffffffffffff1614156110d157600080fd5b6110db8282610e61565b6110e457600080fd5b60008260000160008373ffffffffffffffffffffffffffffffffffffffff1673ffffffffffffffffffffffffffffffffffffffff16815260200190815260200160002060006101000a81548160ff0219169083151502179055505050565b828054600181600116156101000203166002900490600052602060002090601f016020900481019282601f1061118357805160ff19168380011785556111b1565b828001600101855582156111b1579182015b828111156111b0578251825591602001919060010190611195565b5b5090506111be91906112ef565b5090565b828054600181600116156101000203166002900490600052602060002090601f016020900481019282601f1061120357805160ff1916838001178555611231565b82800160010185558215611231579182015b82811115611230578251825591602001919060010190611215565b5b50905061123e91906112ef565b5090565b828054828255906000526020600020908101928215611291579160200282015b82811115611290578251829080519060200190611280929190611142565b5091602001919060010190611262565b5b50905061129e9190611314565b5090565b8280548282559060005260206000209081019282156112de579160200282015b828111156112dd5782518255916020019190600101906112c2565b5b5090506112eb91906112ef565b5090565b61131191905b8082111561130d5760008160009055506001016112f5565b5090565b90565b61133d91905b8082111561133957600081816113309190611340565b5060010161131a565b5090565b90565b50805460018160011615610100020316600290046000825580601f106113665750611385565b601f01602090049060005260206000209081019061138491906112ef565b5b50565b60008135905061139781612002565b92915050565b600082601f8301126113ae57600080fd5b81356113c16113bc82611d84565b611d57565b9150818183526020840193506020810190508360005b8381101561140757813586016113ed8882611494565b8452602084019350602083019250506001810190506113d7565b5050505092915050565b600082601f83011261142257600080fd5b813561143561143082611dac565b611d57565b9150818183526020840193506020810190508385602084028201111561145a57600080fd5b60005b8381101561148a5781611470888261153c565b84526020840193506020830192505060018101905061145d565b5050505092915050565b600082601f8301126114a557600080fd5b81356114b86114b382611dd4565b611d57565b915080825260208301602083018583830111156114d457600080fd5b6114df838284611f74565b50505092915050565b600082601f8301126114f957600080fd5b813561150c61150782611e00565b611d57565b9150808252602083016020830185838301111561152857600080fd5b611533838284611f74565b50505092915050565b60008135905061154b81612019565b92915050565b60006020828403121561156357600080fd5b600061157184828501611388565b91505092915050565b60006020828403121561158c57600080fd5b600082013567ffffffffffffffff8111156115a657600080fd5b6115b2848285016114e8565b91505092915050565b6000806000606084860312156115d057600080fd5b600084013567ffffffffffffffff8111156115ea57600080fd5b6115f6868287016114e8565b935050602084013567ffffffffffffffff81111561161357600080fd5b61161f8682870161139d565b925050604084013567ffffffffffffffff81111561163c57600080fd5b61164886828701611411565b9150509250925092565b6000806040838503121561166557600080fd5b600083013567ffffffffffffffff81111561167f57600080fd5b61168b858286016114e8565b925050602083013567ffffffffffffffff8111156116a857600080fd5b6116b4858286016114e8565b9150509250929050565b600080600080600060a086880312156116d657600080fd5b600086013567ffffffffffffffff8111156116f057600080fd5b6116fc888289016114e8565b955050602086013567ffffffffffffffff81111561171957600080fd5b611725888289016114e8565b94505060406117368882890161153c565b935050606086013567ffffffffffffffff81111561175357600080fd5b61175f888289016114e8565b92505060806117708882890161153c565b9150509295509295909350565b60006020828403121561178f57600080fd5b600061179d8482850161153c565b91505092915050565b60006117b283836119cd565b905092915050565b60006117c68383611b30565b905092915050565b60006117da8383611b6d565b60208301905092915050565b6117f76117f282611f2c565b611fb6565b82525050565b61180681611f1a565b82525050565b600061181782611e5c565b6118218185611eba565b93508360208202850161183385611e2c565b8060005b8581101561186f578484038952815161185085826117a6565b945061185b83611e93565b925060208a01995050600181019050611837565b50829750879550505050505092915050565b600061188c82611e67565b6118968185611ecb565b9350836020820285016118a885611e3c565b8060005b858110156118e457848403895281516118c585826117ba565b94506118d083611ea0565b925060208a019950506001810190506118ac565b50829750879550505050505092915050565b600061190182611e72565b61190b8185611edc565b935061191683611e4c565b8060005b8381101561194757815161192e88826117ce565b975061193983611ead565b92505060018101905061191a565b5085935050505092915050565b61195d81611f3e565b82525050565b600061196e82611e88565b6119788185611efe565b9350611988818560208601611f83565b61199181611fe4565b840191505092915050565b60006119a782611e88565b6119b18185611f0f565b93506119c1818560208601611f83565b80840191505092915050565b60006119d882611e7d565b6119e28185611eed565b93506119f2818560208601611f83565b6119fb81611fe4565b840191505092915050565b6000611a1182611e7d565b611a1b8185611efe565b9350611a2b818560208601611f83565b611a3481611fe4565b840191505092915050565b6000611a4a82611e7d565b611a548185611f0f565b9350611a64818560208601611f83565b80840191505092915050565b6000611a7d601e83611efe565b91507f50617373776f72642068617320616c7265616479206265656e207573656400006000830152602082019050919050565b6000611abd601f83611efe565b91507f496e76616c69642074656163686572206f72207375626a65637420636f6465006000830152602082019050919050565b6000611afd601083611efe565b91507f496e76616c69642070617373776f7264000000000000000000000000000000006000830152602082019050919050565b6000604083016000830151611b486000860182611b6d565b5060208301518482036020860152611b6082826119cd565b9150508091505092915050565b611b7681611f6a565b82525050565b611b8581611f6a565b82525050565b611b9c611b9782611f6a565b611fda565b82525050565b6000611bae82876117e6565b601482019150611bbe828661199c565b9150611bca8285611a3f565b9150611bd68284611b8b565b60208201915081905095945050505050565b6000611bf48284611a3f565b915081905092915050565b6000611c0b828461199c565b915081905092915050565b6000602082019050611c2b60008301846117fd565b92915050565b60006020820190508181036000830152611c4b8184611881565b905092915050565b60006020820190508181036000830152611c6d81846118f6565b905092915050565b6000602082019050611c8a6000830184611954565b92915050565b60006040820190508181036000830152611caa8185611963565b90508181036020830152611cbe818461180c565b90509392505050565b60006020820190508181036000830152611ce081611a70565b9050919050565b60006020820190508181036000830152611d0081611ab0565b9050919050565b60006020820190508181036000830152611d2081611af0565b9050919050565b6000604082019050611d3c6000830185611b7c565b8181036020830152611d4e8184611a06565b90509392505050565b6000604051905081810181811067ffffffffffffffff82111715611d7a57600080fd5b8060405250919050565b600067ffffffffffffffff821115611d9b57600080fd5b602082029050602081019050919050565b600067ffffffffffffffff821115611dc357600080fd5b602082029050602081019050919050565b600067ffffffffffffffff821115611deb57600080fd5b601f19601f8301169050602081019050919050565b600067ffffffffffffffff821115611e1757600080fd5b601f19601f8301169050602081019050919050565b6000819050602082019050919050565b6000819050602082019050919050565b6000819050602082019050919050565b600081519050919050565b600081519050919050565b600081519050919050565b600081519050919050565b600081519050919050565b6000602082019050919050565b6000602082019050919050565b6000602082019050919050565b600082825260208201905092915050565b600082825260208201905092915050565b600082825260208201905092915050565b600082825260208201905092915050565b600082825260208201905092915050565b600081905092915050565b6000611f2582611f4a565b9050919050565b6000611f3782611f4a565b9050919050565b60008115159050919050565b600073ffffffffffffffffffffffffffffffffffffffff82169050919050565b6000819050919050565b82818337600083830152505050565b60005b83811015611fa1578082015181840152602081019050611f86565b83811115611fb0576000848401525b50505050565b6000611fc182611fc8565b9050919050565b6000611fd382611ff5565b9050919050565b6000819050919050565b6000601f19601f8301169050919050565b60008160601b9050919050565b61200b81611f1a565b811461201657600080fd5b50565b61202281611f6a565b811461202d57600080fd5b5056fea365627a7a723158205ff5709b69422f17c7ff570e708e1d51e6b949237c753a19a3e323288da49fa86c6578706572696d656e74616cf564736f6c63430005100040",
  "source": "// SPDX-License-Identifier: GPL-3.0\r\npragma solidity >=0.4.24;\r\npragma experimental ABIEncoderV2;\r\n// inherited contracts\r\nimport \"./Ownable.sol\";\r\nimport \"./TeacherRole.sol\";\r\n\r\n// Define a contract 'Student Feedback Smart Contract'\r\ncontract AcadChainContract is Ownable, TeacherRole {\r\n    struct TeacherData {\r\n        string code;\r\n        string[] subjectCodes;\r\n        mapping(string => uint[]) passwordMap;\r\n        mapping(string => Review[]) reviewMap;\r\n    }\r\n\r\n    struct Review {\r\n        uint rating;\r\n        string comments;\r\n    }\r\n\r\n    Review[] public reviews;\r\n\r\n    mapping(string => TeacherData) teachers;\r\n    mapping(uint => bool) usedPasswords;\r\n\r\n    modifier checkEitherOwnerOrTeacher() {\r\n        if ((isOwner() == true) || (isTeacher(msg.sender) == true)) {\r\n            _;\r\n        }\r\n    }\r\n\r\n    function addTeacher(\r\n        string memory _teacherCode,\r\n        string[] memory _subjectCodes,\r\n        uint[] memory _studentCount\r\n    ) public onlyOwner {\r\n\r\n        teachers[_teacherCode].code = _teacherCode;\r\n        teachers[_teacherCode].subjectCodes = _subjectCodes;\r\n\r\n        for (uint i = 0; i < _subjectCodes.length; i++) {\r\n            uint[] memory passwords = new uint[](_studentCount[i]);\r\n            for (uint j = 0; j < _studentCount[i]; j++) {\r\n                uint password = uint(\r\n                    keccak256(\r\n                        abi.encodePacked(\r\n                            msg.sender,\r\n                            _teacherCode,\r\n                            _subjectCodes[i],\r\n                            j\r\n                        )\r\n                    )\r\n                ) % 100000;\r\n                passwords[j] = password;\r\n            }\r\n            teachers[_teacherCode].passwordMap[_subjectCodes[i]] = passwords;\r\n        }\r\n    }\r\n\r\n    function getTeacher(\r\n        string memory _teacherCode\r\n    ) public view checkEitherOwnerOrTeacher returns (string memory code, string[] memory subjectCodes)\r\n    {\r\n        TeacherData storage teacher = teachers[_teacherCode];\r\n        return (teacher.code, teacher.subjectCodes);\r\n    }\r\n\r\n    function getPasswords(\r\n        string memory _teacherCode,\r\n        string memory _subjectCode\r\n    ) public view checkEitherOwnerOrTeacher returns (uint[] memory passwords) {\r\n        return teachers[_teacherCode].passwordMap[_subjectCode];\r\n    }\r\n\r\n    function getReview(\r\n        string memory _teacherCode,\r\n        string memory _subjectCode\r\n    ) public view checkEitherOwnerOrTeacher returns (Review[] memory) {\r\n        return (teachers[_teacherCode].reviewMap[_subjectCode]);\r\n    }\r\n\r\n    function addReview(\r\n        string memory _teacherCode,\r\n        string memory _subjectCode,\r\n        uint _rating,\r\n        string memory _comments,\r\n        uint _password\r\n    ) public {\r\n        uint[] memory passwords = teachers[_teacherCode].passwordMap[\r\n            _subjectCode\r\n        ];\r\n        require(passwords.length > 0, \"Invalid teacher or subject code\");\r\n        require(!usedPasswords[_password], \"Password has already been used\");\r\n        bool passwordMatch = false;\r\n        for (uint i = 0; i < passwords.length; i++) {\r\n            if (passwords[i] == _password) {\r\n                passwordMatch = true;\r\n                break;\r\n            }\r\n        }\r\n        require(passwordMatch, \"Invalid password\");\r\n        usedPasswords[_password] = true;\r\n        teachers[_teacherCode].reviewMap[_subjectCode].push(\r\n            Review(_rating, _comments)\r\n        );\r\n    }\r\n}\r\n",
  "sourcePath": "C:\\Users\\pragy\\Desktop\\Workspaces\\Projects\\STABLE - StudentFeedbackDapp v1.0\\StudentFeedbackDapp\\AcadChain\\contracts\\AcadChainContract.sol",
  "compiler": {
    "name": "solc",
    "version": "0.5.16+commit.9c3226ce.Emscripten.clang"
  },
  "schemaVersion": "3.4.14",
  "updatedAt": "2023-09-26T08:07:00.553Z",
  "networkType": "ethereum",
  "devdoc": {
    "methods": {}
  },
  "userdoc": {
    "methods": {
      "isOwner()": {
        "notice": "Check if the calling address is the owner of the contract"
      },
      "ownerLookup()": {
        "notice": "Look up the address of the owner"
      },
      "renounceOwnership()": {
        "notice": "Define a function to renounce ownerhip"
      },
      "transferOwnership(address)": {
        "notice": "Define a public function to transfer ownership"
      }
    }
  }
}